{
  "contractName": "CrowdsaleTokenExt",
  "abi": [
    {
      "constant": false,
      "inputs": [
        {
          "name": "addr",
          "type": "address"
        },
        {
          "name": "state",
          "type": "bool"
        }
      ],
      "name": "setTransferAgent",
      "outputs": [],
      "payable": false,
      "stateMutability": "nonpayable",
      "type": "function"
    },
    {
      "constant": true,
      "inputs": [],
      "name": "mintingFinished",
      "outputs": [
        {
          "name": "",
          "type": "bool"
        }
      ],
      "payable": false,
      "stateMutability": "view",
      "type": "function"
    },
    {
      "constant": true,
      "inputs": [],
      "name": "name",
      "outputs": [
        {
          "name": "",
          "type": "string"
        }
      ],
      "payable": false,
      "stateMutability": "view",
      "type": "function"
    },
    {
      "constant": false,
      "inputs": [
        {
          "name": "_spender",
          "type": "address"
        },
        {
          "name": "_value",
          "type": "uint256"
        }
      ],
      "name": "approve",
      "outputs": [
        {
          "name": "success",
          "type": "bool"
        }
      ],
      "payable": false,
      "stateMutability": "nonpayable",
      "type": "function"
    },
    {
      "constant": true,
      "inputs": [],
      "name": "totalSupply",
      "outputs": [
        {
          "name": "",
          "type": "uint256"
        }
      ],
      "payable": false,
      "stateMutability": "view",
      "type": "function"
    },
    {
      "constant": false,
      "inputs": [
        {
          "name": "_from",
          "type": "address"
        },
        {
          "name": "_to",
          "type": "address"
        },
        {
          "name": "_value",
          "type": "uint256"
        }
      ],
      "name": "transferFrom",
      "outputs": [
        {
          "name": "success",
          "type": "bool"
        }
      ],
      "payable": false,
      "stateMutability": "nonpayable",
      "type": "function"
    },
    {
      "constant": false,
      "inputs": [
        {
          "name": "addr",
          "type": "address"
        }
      ],
      "name": "setReleaseAgent",
      "outputs": [],
      "payable": false,
      "stateMutability": "nonpayable",
      "type": "function"
    },
    {
      "constant": true,
      "inputs": [],
      "name": "decimals",
      "outputs": [
        {
          "name": "",
          "type": "uint256"
        }
      ],
      "payable": false,
      "stateMutability": "view",
      "type": "function"
    },
    {
      "constant": true,
      "inputs": [
        {
          "name": "addr",
          "type": "address"
        }
      ],
      "name": "getReservedPercentageUnit",
      "outputs": [
        {
          "name": "inPercentageUnit",
          "type": "uint256"
        }
      ],
      "payable": false,
      "stateMutability": "view",
      "type": "function"
    },
    {
      "constant": true,
      "inputs": [],
      "name": "minCap",
      "outputs": [
        {
          "name": "",
          "type": "uint256"
        }
      ],
      "payable": false,
      "stateMutability": "view",
      "type": "function"
    },
    {
      "constant": false,
      "inputs": [
        {
          "name": "receiver",
          "type": "address"
        },
        {
          "name": "amount",
          "type": "uint256"
        }
      ],
      "name": "mint",
      "outputs": [],
      "payable": false,
      "stateMutability": "nonpayable",
      "type": "function"
    },
    {
      "constant": true,
      "inputs": [
        {
          "name": "",
          "type": "address"
        }
      ],
      "name": "mintAgents",
      "outputs": [
        {
          "name": "",
          "type": "bool"
        }
      ],
      "payable": false,
      "stateMutability": "view",
      "type": "function"
    },
    {
      "constant": false,
      "inputs": [
        {
          "name": "addr",
          "type": "address"
        },
        {
          "name": "state",
          "type": "bool"
        }
      ],
      "name": "setMintAgent",
      "outputs": [],
      "payable": false,
      "stateMutability": "nonpayable",
      "type": "function"
    },
    {
      "constant": false,
      "inputs": [
        {
          "name": "value",
          "type": "uint256"
        }
      ],
      "name": "upgrade",
      "outputs": [],
      "payable": false,
      "stateMutability": "nonpayable",
      "type": "function"
    },
    {
      "constant": true,
      "inputs": [
        {
          "name": "addr",
          "type": "address"
        }
      ],
      "name": "getReservedPercentageDecimals",
      "outputs": [
        {
          "name": "inPercentageDecimals",
          "type": "uint256"
        }
      ],
      "payable": false,
      "stateMutability": "view",
      "type": "function"
    },
    {
      "constant": true,
      "inputs": [
        {
          "name": "",
          "type": "address"
        }
      ],
      "name": "reservedTokensList",
      "outputs": [
        {
          "name": "inTokens",
          "type": "uint256"
        },
        {
          "name": "inPercentageUnit",
          "type": "uint256"
        },
        {
          "name": "inPercentageDecimals",
          "type": "uint256"
        },
        {
          "name": "isReserved",
          "type": "bool"
        },
        {
          "name": "isDistributed",
          "type": "bool"
        }
      ],
      "payable": false,
      "stateMutability": "view",
      "type": "function"
    },
    {
      "constant": true,
      "inputs": [],
      "name": "upgradeAgent",
      "outputs": [
        {
          "name": "",
          "type": "address"
        }
      ],
      "payable": false,
      "stateMutability": "view",
      "type": "function"
    },
    {
      "constant": true,
      "inputs": [],
      "name": "upgradeMaster",
      "outputs": [
        {
          "name": "",
          "type": "address"
        }
      ],
      "payable": false,
      "stateMutability": "view",
      "type": "function"
    },
    {
      "constant": true,
      "inputs": [
        {
          "name": "addr",
          "type": "address"
        }
      ],
      "name": "getReservedTokens",
      "outputs": [
        {
          "name": "inTokens",
          "type": "uint256"
        }
      ],
      "payable": false,
      "stateMutability": "view",
      "type": "function"
    },
    {
      "constant": false,
      "inputs": [
        {
          "name": "addr",
          "type": "address"
        }
      ],
      "name": "finalizeReservedAddress",
      "outputs": [],
      "payable": false,
      "stateMutability": "nonpayable",
      "type": "function"
    },
    {
      "constant": true,
      "inputs": [
        {
          "name": "_owner",
          "type": "address"
        }
      ],
      "name": "balanceOf",
      "outputs": [
        {
          "name": "balance",
          "type": "uint256"
        }
      ],
      "payable": false,
      "stateMutability": "view",
      "type": "function"
    },
    {
      "constant": true,
      "inputs": [
        {
          "name": "",
          "type": "uint256"
        }
      ],
      "name": "reservedTokensDestinations",
      "outputs": [
        {
          "name": "",
          "type": "address"
        }
      ],
      "payable": false,
      "stateMutability": "view",
      "type": "function"
    },
    {
      "constant": true,
      "inputs": [],
      "name": "getUpgradeState",
      "outputs": [
        {
          "name": "",
          "type": "uint8"
        }
      ],
      "payable": false,
      "stateMutability": "view",
      "type": "function"
    },
    {
      "constant": true,
      "inputs": [
        {
          "name": "",
          "type": "address"
        }
      ],
      "name": "transferAgents",
      "outputs": [
        {
          "name": "",
          "type": "bool"
        }
      ],
      "payable": false,
      "stateMutability": "view",
      "type": "function"
    },
    {
      "constant": true,
      "inputs": [],
      "name": "owner",
      "outputs": [
        {
          "name": "",
          "type": "address"
        }
      ],
      "payable": false,
      "stateMutability": "view",
      "type": "function"
    },
    {
      "constant": true,
      "inputs": [],
      "name": "symbol",
      "outputs": [
        {
          "name": "",
          "type": "string"
        }
      ],
      "payable": false,
      "stateMutability": "view",
      "type": "function"
    },
    {
      "constant": true,
      "inputs": [
        {
          "name": "addr",
          "type": "address"
        }
      ],
      "name": "isAddressReserved",
      "outputs": [
        {
          "name": "isReserved",
          "type": "bool"
        }
      ],
      "payable": false,
      "stateMutability": "view",
      "type": "function"
    },
    {
      "constant": true,
      "inputs": [],
      "name": "released",
      "outputs": [
        {
          "name": "",
          "type": "bool"
        }
      ],
      "payable": false,
      "stateMutability": "view",
      "type": "function"
    },
    {
      "constant": false,
      "inputs": [
        {
          "name": "_to",
          "type": "address"
        },
        {
          "name": "_value",
          "type": "uint256"
        }
      ],
      "name": "transfer",
      "outputs": [
        {
          "name": "success",
          "type": "bool"
        }
      ],
      "payable": false,
      "stateMutability": "nonpayable",
      "type": "function"
    },
    {
      "constant": true,
      "inputs": [
        {
          "name": "addr",
          "type": "address"
        }
      ],
      "name": "areTokensDistributedForAddress",
      "outputs": [
        {
          "name": "isDistributed",
          "type": "bool"
        }
      ],
      "payable": false,
      "stateMutability": "view",
      "type": "function"
    },
    {
      "constant": true,
      "inputs": [],
      "name": "reservedTokensDestinationsLen",
      "outputs": [
        {
          "name": "",
          "type": "uint256"
        }
      ],
      "payable": false,
      "stateMutability": "view",
      "type": "function"
    },
    {
      "constant": true,
      "inputs": [],
      "name": "totalUpgraded",
      "outputs": [
        {
          "name": "",
          "type": "uint256"
        }
      ],
      "payable": false,
      "stateMutability": "view",
      "type": "function"
    },
    {
      "constant": true,
      "inputs": [],
      "name": "releaseAgent",
      "outputs": [
        {
          "name": "",
          "type": "address"
        }
      ],
      "payable": false,
      "stateMutability": "view",
      "type": "function"
    },
    {
      "constant": false,
      "inputs": [
        {
          "name": "agent",
          "type": "address"
        }
      ],
      "name": "setUpgradeAgent",
      "outputs": [],
      "payable": false,
      "stateMutability": "nonpayable",
      "type": "function"
    },
    {
      "constant": true,
      "inputs": [
        {
          "name": "_owner",
          "type": "address"
        },
        {
          "name": "_spender",
          "type": "address"
        }
      ],
      "name": "allowance",
      "outputs": [
        {
          "name": "remaining",
          "type": "uint256"
        }
      ],
      "payable": false,
      "stateMutability": "view",
      "type": "function"
    },
    {
      "constant": true,
      "inputs": [],
      "name": "isToken",
      "outputs": [
        {
          "name": "weAre",
          "type": "bool"
        }
      ],
      "payable": false,
      "stateMutability": "view",
      "type": "function"
    },
    {
      "constant": false,
      "inputs": [
        {
          "name": "addrs",
          "type": "address[]"
        },
        {
          "name": "inTokens",
          "type": "uint256[]"
        },
        {
          "name": "inPercentageUnit",
          "type": "uint256[]"
        },
        {
          "name": "inPercentageDecimals",
          "type": "uint256[]"
        }
      ],
      "name": "setReservedTokensListMultiple",
      "outputs": [],
      "payable": false,
      "stateMutability": "nonpayable",
      "type": "function"
    },
    {
      "constant": false,
      "inputs": [
        {
          "name": "newOwner",
          "type": "address"
        }
      ],
      "name": "transferOwnership",
      "outputs": [],
      "payable": false,
      "stateMutability": "nonpayable",
      "type": "function"
    },
    {
      "constant": false,
      "inputs": [
        {
          "name": "master",
          "type": "address"
        }
      ],
      "name": "setUpgradeMaster",
      "outputs": [],
      "payable": false,
      "stateMutability": "nonpayable",
      "type": "function"
    },
    {
      "inputs": [
        {
          "name": "_name",
          "type": "string"
        },
        {
          "name": "_symbol",
          "type": "string"
        },
        {
          "name": "_initialSupply",
          "type": "uint256"
        },
        {
          "name": "_decimals",
          "type": "uint256"
        },
        {
          "name": "_mintable",
          "type": "bool"
        },
        {
          "name": "_globalMinCap",
          "type": "uint256"
        }
      ],
      "payable": false,
      "stateMutability": "nonpayable",
      "type": "constructor"
    },
    {
      "anonymous": false,
      "inputs": [
        {
          "indexed": false,
          "name": "newName",
          "type": "string"
        },
        {
          "indexed": false,
          "name": "newSymbol",
          "type": "string"
        }
      ],
      "name": "UpdatedTokenInformation",
      "type": "event"
    },
    {
      "anonymous": false,
      "inputs": [
        {
          "indexed": true,
          "name": "_token",
          "type": "address"
        },
        {
          "indexed": true,
          "name": "_controller",
          "type": "address"
        },
        {
          "indexed": false,
          "name": "_amount",
          "type": "uint256"
        }
      ],
      "name": "ClaimedTokens",
      "type": "event"
    },
    {
      "anonymous": false,
      "inputs": [
        {
          "indexed": true,
          "name": "_from",
          "type": "address"
        },
        {
          "indexed": true,
          "name": "_to",
          "type": "address"
        },
        {
          "indexed": false,
          "name": "_value",
          "type": "uint256"
        }
      ],
      "name": "Upgrade",
      "type": "event"
    },
    {
      "anonymous": false,
      "inputs": [
        {
          "indexed": false,
          "name": "agent",
          "type": "address"
        }
      ],
      "name": "UpgradeAgentSet",
      "type": "event"
    },
    {
      "anonymous": false,
      "inputs": [
        {
          "indexed": false,
          "name": "addr",
          "type": "address"
        },
        {
          "indexed": false,
          "name": "state",
          "type": "bool"
        }
      ],
      "name": "MintingAgentChanged",
      "type": "event"
    },
    {
      "anonymous": false,
      "inputs": [
        {
          "indexed": true,
          "name": "previousOwner",
          "type": "address"
        },
        {
          "indexed": true,
          "name": "newOwner",
          "type": "address"
        }
      ],
      "name": "OwnershipTransferred",
      "type": "event"
    },
    {
      "anonymous": false,
      "inputs": [
        {
          "indexed": false,
          "name": "receiver",
          "type": "address"
        },
        {
          "indexed": false,
          "name": "amount",
          "type": "uint256"
        }
      ],
      "name": "Minted",
      "type": "event"
    },
    {
      "anonymous": false,
      "inputs": [
        {
          "indexed": true,
          "name": "owner",
          "type": "address"
        },
        {
          "indexed": true,
          "name": "spender",
          "type": "address"
        },
        {
          "indexed": false,
          "name": "value",
          "type": "uint256"
        }
      ],
      "name": "Approval",
      "type": "event"
    },
    {
      "anonymous": false,
      "inputs": [
        {
          "indexed": true,
          "name": "from",
          "type": "address"
        },
        {
          "indexed": true,
          "name": "to",
          "type": "address"
        },
        {
          "indexed": false,
          "name": "value",
          "type": "uint256"
        }
      ],
      "name": "Transfer",
      "type": "event"
    },
    {
      "constant": false,
      "inputs": [],
      "name": "releaseTokenTransfer",
      "outputs": [],
      "payable": false,
      "stateMutability": "nonpayable",
      "type": "function"
    },
    {
      "constant": true,
      "inputs": [],
      "name": "canUpgrade",
      "outputs": [
        {
          "name": "",
          "type": "bool"
        }
      ],
      "payable": false,
      "stateMutability": "view",
      "type": "function"
    },
    {
      "constant": false,
      "inputs": [
        {
          "name": "_name",
          "type": "string"
        },
        {
          "name": "_symbol",
          "type": "string"
        }
      ],
      "name": "setTokenInformation",
      "outputs": [],
      "payable": false,
      "stateMutability": "nonpayable",
      "type": "function"
    },
    {
      "constant": false,
      "inputs": [
        {
          "name": "_token",
          "type": "address"
        }
      ],
      "name": "claimTokens",
      "outputs": [],
      "payable": false,
      "stateMutability": "nonpayable",
      "type": "function"
    }
  ],
  "bytecode": "0x60606040526000600460146101000a81548160ff0219169083151502179055506000600660006101000a81548160ff0219169083151502179055506000600a556000600b60006101000a81548160ff02191690831515021790555034156200006657600080fd5b604051620037c3380380620037c3833981016040528080518201919060200180518201919060200180519060200190919080519060200190919080519060200190919080519060200190919050503333600360006101000a81548173ffffffffffffffffffffffffffffffffffffffff021916908373ffffffffffffffffffffffffffffffffffffffff16021790555080600b60016101000a81548173ffffffffffffffffffffffffffffffffffffffff021916908373ffffffffffffffffffffffffffffffffffffffff1602179055505033600360006101000a81548173ffffffffffffffffffffffffffffffffffffffff021916908373ffffffffffffffffffffffffffffffffffffffff16021790555085600e90805190602001906200019192919062000301565b5084600f9080519060200190620001aa92919062000301565b5083600081905550826010819055508060118190555060005460016000600360009054906101000a900473ffffffffffffffffffffffffffffffffffffffff1673ffffffffffffffffffffffffffffffffffffffff1673ffffffffffffffffffffffffffffffffffffffff16815260200190815260200160002081905550600080541115620002c3577f30385c845b448a36257a6a1716e6ad2e1bc2cbe333cde1e69fe849ad6511adfe600360009054906101000a900473ffffffffffffffffffffffffffffffffffffffff16600054604051808373ffffffffffffffffffffffffffffffffffffffff1673ffffffffffffffffffffffffffffffffffffffff1681526020018281526020019250505060405180910390a15b811515620002f5576001600660006101000a81548160ff02191690831515021790555060008054141515620002f457fe5b5b505050505050620003b0565b828054600181600116156101000203166002900490600052602060002090601f016020900481019282601f106200034457805160ff191683800117855562000375565b8280016001018555821562000375579182015b828111156200037457825182559160200191906001019062000357565b5b50905062000384919062000388565b5090565b620003ad91905b80821115620003a95760008160009055506001016200038f565b5090565b90565b61340380620003c06000396000f30060606040526004361061020f576000357c0100000000000000000000000000000000000000000000000000000000900463ffffffff16806302f652a31461021457806305d2035b1461025857806306fdde0314610285578063095ea7b31461031357806318160ddd1461036d57806323b872dd1461039657806329ff4f531461040f578063313ce567146104485780633d0acdaa146104715780633fa615b0146104be57806340c10f19146104e757806342c1867b14610529578063432146751461057a57806345977d03146105be57806345e7e140146105e15780634eee966f1461062e57806351ed17a4146106ce5780635de4ccb01461073f5780635f412d4f14610794578063600440cb146107a9578063612544b3146107fe5780636ffc22b81461084b57806370a08231146108845780637386f0a7146108d15780638444b39114610934578063867c28571461096b5780638da5cb5b146109bc57806395d89b4114610a1157806395fe6f1d14610a9f5780639613252114610af05780639738968c14610b1d578063a9059cbb14610b4a578063b4ecb84714610ba4578063c331051714610bf5578063c752ff6214610c1e578063d1f276d314610c47578063d7e7088a14610c9c578063dd62ed3e14610cd5578063df8de3e714610d41578063eefa597b14610d7a578063f05834d614610da7578063f2fde38b14610ec1578063ffeb7d7514610efa575b600080fd5b341561021f57600080fd5b610256600480803573ffffffffffffffffffffffffffffffffffffffff169060200190919080351515906020019091905050610f33565b005b341561026357600080fd5b61026b61100c565b604051808215151515815260200191505060405180910390f35b341561029057600080fd5b61029861101f565b6040518080602001828103825283818151815260200191508051906020019080838360005b838110156102d85780820151818401526020810190506102bd565b50505050905090810190601f1680156103055780820380516001836020036101000a031916815260200191505b509250505060405180910390f35b341561031e57600080fd5b610353600480803573ffffffffffffffffffffffffffffffffffffffff169060200190919080359060200190919050506110bd565b604051808215151515815260200191505060405180910390f35b341561037857600080fd5b610380611244565b6040518082815260200191505060405180910390f35b34156103a157600080fd5b6103f5600480803573ffffffffffffffffffffffffffffffffffffffff1690602001909190803573ffffffffffffffffffffffffffffffffffffffff1690602001909190803590602001909190505061124a565b604051808215151515815260200191505060405180910390f35b341561041a57600080fd5b610446600480803573ffffffffffffffffffffffffffffffffffffffff169060200190919050506112cf565b005b341561045357600080fd5b61045b611391565b6040518082815260200191505060405180910390f35b341561047c57600080fd5b6104a8600480803573ffffffffffffffffffffffffffffffffffffffff16906020019091905050611397565b6040518082815260200191505060405180910390f35b34156104c957600080fd5b6104d16113e3565b6040518082815260200191505060405180910390f35b34156104f257600080fd5b610527600480803573ffffffffffffffffffffffffffffffffffffffff169060200190919080359060200190919050506113e9565b005b341561053457600080fd5b610560600480803573ffffffffffffffffffffffffffffffffffffffff16906020019091905050611665565b604051808215151515815260200191505060405180910390f35b341561058557600080fd5b6105bc600480803573ffffffffffffffffffffffffffffffffffffffff169060200190919080351515906020019091905050611685565b005b34156105c957600080fd5b6105df60048080359060200190919050506117c3565b005b34156105ec57600080fd5b610618600480803573ffffffffffffffffffffffffffffffffffffffff16906020019091905050611a31565b6040518082815260200191505060405180910390f35b341561063957600080fd5b6106cc600480803590602001908201803590602001908080601f0160208091040260200160405190810160405280939291908181526020018383808284378201915050505050509190803590602001908201803590602001908080601f01602080910402602001604051908101604052809392919081815260200183838082843782019150505050505091905050611a7d565b005b34156106d957600080fd5b610705600480803573ffffffffffffffffffffffffffffffffffffffff16906020019091905050611c50565b6040518086815260200185815260200184815260200183151515158152602001821515151581526020019550505050505060405180910390f35b341561074a57600080fd5b610752611ca0565b604051808273ffffffffffffffffffffffffffffffffffffffff1673ffffffffffffffffffffffffffffffffffffffff16815260200191505060405180910390f35b341561079f57600080fd5b6107a7611cc6565b005b34156107b457600080fd5b6107bc611d45565b604051808273ffffffffffffffffffffffffffffffffffffffff1673ffffffffffffffffffffffffffffffffffffffff16815260200191505060405180910390f35b341561080957600080fd5b610835600480803573ffffffffffffffffffffffffffffffffffffffff16906020019091905050611d6b565b6040518082815260200191505060405180910390f35b341561085657600080fd5b610882600480803573ffffffffffffffffffffffffffffffffffffffff16906020019091905050611db7565b005b341561088f57600080fd5b6108bb600480803573ffffffffffffffffffffffffffffffffffffffff16906020019091905050611e89565b6040518082815260200191505060405180910390f35b34156108dc57600080fd5b6108f26004808035906020019091905050611ed2565b604051808273ffffffffffffffffffffffffffffffffffffffff1673ffffffffffffffffffffffffffffffffffffffff16815260200191505060405180910390f35b341561093f57600080fd5b610947611f11565b6040518082600481111561095757fe5b60ff16815260200191505060405180910390f35b341561097657600080fd5b6109a2600480803573ffffffffffffffffffffffffffffffffffffffff16906020019091905050611f90565b604051808215151515815260200191505060405180910390f35b34156109c757600080fd5b6109cf611fb0565b604051808273ffffffffffffffffffffffffffffffffffffffff1673ffffffffffffffffffffffffffffffffffffffff16815260200191505060405180910390f35b3415610a1c57600080fd5b610a24611fd6565b6040518080602001828103825283818151815260200191508051906020019080838360005b83811015610a64578082015181840152602081019050610a49565b50505050905090810190601f168015610a915780820380516001836020036101000a031916815260200191505b509250505060405180910390f35b3415610aaa57600080fd5b610ad6600480803573ffffffffffffffffffffffffffffffffffffffff16906020019091905050612074565b604051808215151515815260200191505060405180910390f35b3415610afb57600080fd5b610b036120cd565b604051808215151515815260200191505060405180910390f35b3415610b2857600080fd5b610b306120e0565b604051808215151515815260200191505060405180910390f35b3415610b5557600080fd5b610b8a600480803573ffffffffffffffffffffffffffffffffffffffff16906020019091908035906020019091905050612107565b604051808215151515815260200191505060405180910390f35b3415610baf57600080fd5b610bdb600480803573ffffffffffffffffffffffffffffffffffffffff1690602001909190505061218a565b604051808215151515815260200191505060405180910390f35b3415610c0057600080fd5b610c086121e3565b6040518082815260200191505060405180910390f35b3415610c2957600080fd5b610c316121e9565b6040518082815260200191505060405180910390f35b3415610c5257600080fd5b610c5a6121ef565b604051808273ffffffffffffffffffffffffffffffffffffffff1673ffffffffffffffffffffffffffffffffffffffff16815260200191505060405180910390f35b3415610ca757600080fd5b610cd3600480803573ffffffffffffffffffffffffffffffffffffffff16906020019091905050612215565b005b3415610ce057600080fd5b610d2b600480803573ffffffffffffffffffffffffffffffffffffffff1690602001909190803573ffffffffffffffffffffffffffffffffffffffff169060200190919050506124fb565b6040518082815260200191505060405180910390f35b3415610d4c57600080fd5b610d78600480803573ffffffffffffffffffffffffffffffffffffffff16906020019091905050612582565b005b3415610d8557600080fd5b610d8d612855565b604051808215151515815260200191505060405180910390f35b3415610db257600080fd5b610ebf60048080359060200190820180359060200190808060200260200160405190810160405280939291908181526020018383602002808284378201915050505050509190803590602001908201803590602001908080602002602001604051908101604052809392919081815260200183836020028082843782019150505050505091908035906020019082018035906020019080806020026020016040519081016040528093929190818152602001838360200280828437820191505050505050919080359060200190820180359060200190808060200260200160405190810160405280939291908181526020018383602002808284378201915050505050509190505061285e565b005b3415610ecc57600080fd5b610ef8600480803573ffffffffffffffffffffffffffffffffffffffff16906020019091905050612a07565b005b3415610f0557600080fd5b610f31600480803573ffffffffffffffffffffffffffffffffffffffff16906020019091905050612b5f565b005b600360009054906101000a900473ffffffffffffffffffffffffffffffffffffffff1673ffffffffffffffffffffffffffffffffffffffff163373ffffffffffffffffffffffffffffffffffffffff16141515610f8f57600080fd5b6000600460149054906101000a900460ff16151581151514151515610fb057fe5b81600560008573ffffffffffffffffffffffffffffffffffffffff1673ffffffffffffffffffffffffffffffffffffffff16815260200190815260200160002060006101000a81548160ff021916908315150217905550505050565b600660009054906101000a900460ff1681565b600e8054600181600116156101000203166002900480601f0160208091040260200160405190810160405280929190818152602001828054600181600116156101000203166002900480156110b55780601f1061108a576101008083540402835291602001916110b5565b820191906000526020600020905b81548152906001019060200180831161109857829003601f168201915b505050505081565b600080821415801561114c57506000600260003373ffffffffffffffffffffffffffffffffffffffff1673ffffffffffffffffffffffffffffffffffffffff16815260200190815260200160002060008573ffffffffffffffffffffffffffffffffffffffff1673ffffffffffffffffffffffffffffffffffffffff1681526020019081526020016000205414155b151561115457fe5b81600260003373ffffffffffffffffffffffffffffffffffffffff1673ffffffffffffffffffffffffffffffffffffffff16815260200190815260200160002060008573ffffffffffffffffffffffffffffffffffffffff1673ffffffffffffffffffffffffffffffffffffffff168152602001908152602001600020819055508273ffffffffffffffffffffffffffffffffffffffff163373ffffffffffffffffffffffffffffffffffffffff167f8c5be1e5ebec7d5bd14f71427d1e84f3dd0314c0f7b2291e5b200ac8c7c3b925846040518082815260200191505060405180910390a36001905092915050565b60005481565b600083600460149054906101000a900460ff1615156112ba57600560008273ffffffffffffffffffffffffffffffffffffffff1673ffffffffffffffffffffffffffffffffffffffff16815260200190815260200160002060009054906101000a900460ff161515156112b957fe5b5b6112c5858585612c1f565b9150509392505050565b600360009054906101000a900473ffffffffffffffffffffffffffffffffffffffff1673ffffffffffffffffffffffffffffffffffffffff163373ffffffffffffffffffffffffffffffffffffffff1614151561132b57600080fd5b6000600460149054906101000a900460ff1615158115151415151561134c57fe5b81600460006101000a81548173ffffffffffffffffffffffffffffffffffffffff021916908373ffffffffffffffffffffffffffffffffffffffff1602179055505050565b60105481565b6000600860008373ffffffffffffffffffffffffffffffffffffffff1673ffffffffffffffffffffffffffffffffffffffff168152602001908152602001600020600101549050919050565b60115481565b600760003373ffffffffffffffffffffffffffffffffffffffff1673ffffffffffffffffffffffffffffffffffffffff16815260200190815260200160002060009054906101000a900460ff1615151561143f57fe5b600660009054906101000a900460ff16151561145757fe5b60005473__SafeMathLibExt________________________6366098d4f9091836000604051602001526040518363ffffffff167c0100000000000000000000000000000000000000000000000000000000028152600401808381526020018281526020019250505060206040518083038186803b15156114d657600080fd5b6102c65a03f415156114e757600080fd5b50505060405180519050600081905550600160008373ffffffffffffffffffffffffffffffffffffffff1673ffffffffffffffffffffffffffffffffffffffff1681526020019081526020016000205473__SafeMathLibExt________________________6366098d4f9091836000604051602001526040518363ffffffff167c0100000000000000000000000000000000000000000000000000000000028152600401808381526020018281526020019250505060206040518083038186803b15156115b357600080fd5b6102c65a03f415156115c457600080fd5b50505060405180519050600160008473ffffffffffffffffffffffffffffffffffffffff1673ffffffffffffffffffffffffffffffffffffffff168152602001908152602001600020819055508173ffffffffffffffffffffffffffffffffffffffff1660007fddf252ad1be2c89b69c2b068fc378daa952ba7f163c4a11628f55a4df523b3ef836040518082815260200191505060405180910390a35050565b60076020528060005260406000206000915054906101000a900460ff1681565b600360009054906101000a900473ffffffffffffffffffffffffffffffffffffffff1673ffffffffffffffffffffffffffffffffffffffff163373ffffffffffffffffffffffffffffffffffffffff161415156116e157600080fd5b600660009054906101000a900460ff1615156116f957fe5b80600760008473ffffffffffffffffffffffffffffffffffffffff1673ffffffffffffffffffffffffffffffffffffffff16815260200190815260200160002060006101000a81548160ff0219169083151502179055507f4b0adf6c802794c7dde28a08a4e07131abcff3bf9603cd71f14f90bec7865efa8282604051808373ffffffffffffffffffffffffffffffffffffffff1673ffffffffffffffffffffffffffffffffffffffff168152602001821515151581526020019250505060405180910390a15050565b60006117cd611f11565b9050600360048111156117dc57fe5b8160048111156117e857fe5b148061180957506004808111156117fb57fe5b81600481111561180757fe5b145b15151561181257fe5b60008214151561181e57fe5b611867600160003373ffffffffffffffffffffffffffffffffffffffff1673ffffffffffffffffffffffffffffffffffffffff1681526020019081526020016000205483612eb4565b600160003373ffffffffffffffffffffffffffffffffffffffff1673ffffffffffffffffffffffffffffffffffffffff168152602001908152602001600020819055506118b660005483612eb4565b6000819055506118c8600d5483612ecd565b600d81905550600c60009054906101000a900473ffffffffffffffffffffffffffffffffffffffff1673ffffffffffffffffffffffffffffffffffffffff1663753e88e533846040518363ffffffff167c0100000000000000000000000000000000000000000000000000000000028152600401808373ffffffffffffffffffffffffffffffffffffffff1673ffffffffffffffffffffffffffffffffffffffff16815260200182815260200192505050600060405180830381600087803b151561199257600080fd5b6102c65a03f115156119a357600080fd5b505050600c60009054906101000a900473ffffffffffffffffffffffffffffffffffffffff1673ffffffffffffffffffffffffffffffffffffffff163373ffffffffffffffffffffffffffffffffffffffff167f7e5c344a8141a805725cb476f76c6953b842222b967edd1f78ddb6e8b3f397ac846040518082815260200191505060405180910390a35050565b6000600860008373ffffffffffffffffffffffffffffffffffffffff1673ffffffffffffffffffffffffffffffffffffffff168152602001908152602001600020600201549050919050565b600360009054906101000a900473ffffffffffffffffffffffffffffffffffffffff1673ffffffffffffffffffffffffffffffffffffffff163373ffffffffffffffffffffffffffffffffffffffff16141515611ad957600080fd5b81600e9080519060200190611aef929190613306565b5080600f9080519060200190611b06929190613306565b507fd131ab1e6f279deea74e13a18477e13e2107deb6dc8ae955648948be5841fb46600e600f604051808060200180602001838103835285818154600181600116156101000203166002900481526020019150805460018160011615610100020316600290048015611bb95780601f10611b8e57610100808354040283529160200191611bb9565b820191906000526020600020905b815481529060010190602001808311611b9c57829003601f168201915b5050838103825284818154600181600116156101000203166002900481526020019150805460018160011615610100020316600290048015611c3c5780601f10611c1157610100808354040283529160200191611c3c565b820191906000526020600020905b815481529060010190602001808311611c1f57829003601f168201915b505094505050505060405180910390a15050565b60086020528060005260406000206000915090508060000154908060010154908060020154908060030160009054906101000a900460ff16908060030160019054906101000a900460ff16905085565b600c60009054906101000a900473ffffffffffffffffffffffffffffffffffffffff1681565b600460009054906101000a900473ffffffffffffffffffffffffffffffffffffffff1673ffffffffffffffffffffffffffffffffffffffff163373ffffffffffffffffffffffffffffffffffffffff1614151515611d2057fe5b6001600660006101000a81548160ff021916908315150217905550611d43612ef7565b565b600b60019054906101000a900473ffffffffffffffffffffffffffffffffffffffff1681565b6000600860008373ffffffffffffffffffffffffffffffffffffffff1673ffffffffffffffffffffffffffffffffffffffff168152602001908152602001600020600001549050919050565b6000600760003373ffffffffffffffffffffffffffffffffffffffff1673ffffffffffffffffffffffffffffffffffffffff16815260200190815260200160002060009054906101000a900460ff16151515611e0f57fe5b600660009054906101000a900460ff161515611e2757fe5b600860008373ffffffffffffffffffffffffffffffffffffffff1673ffffffffffffffffffffffffffffffffffffffff168152602001908152602001600020905060018160030160016101000a81548160ff0219169083151502179055505050565b6000600160008373ffffffffffffffffffffffffffffffffffffffff1673ffffffffffffffffffffffffffffffffffffffff168152602001908152602001600020549050919050565b600981815481101515611ee157fe5b90600052602060002090016000915054906101000a900473ffffffffffffffffffffffffffffffffffffffff1681565b6000611f1b6120e0565b1515611f2a5760019050611f8d565b6000600c60009054906101000a900473ffffffffffffffffffffffffffffffffffffffff1673ffffffffffffffffffffffffffffffffffffffff161415611f745760029050611f8d565b6000600d541415611f885760039050611f8d565b600490505b90565b60056020528060005260406000206000915054906101000a900460ff1681565b600360009054906101000a900473ffffffffffffffffffffffffffffffffffffffff1681565b600f8054600181600116156101000203166002900480601f01602080910402602001604051908101604052809291908181526020018280546001816001161561010002031660029004801561206c5780601f106120415761010080835404028352916020019161206c565b820191906000526020600020905b81548152906001019060200180831161204f57829003601f168201915b505050505081565b6000600860008373ffffffffffffffffffffffffffffffffffffffff1673ffffffffffffffffffffffffffffffffffffffff16815260200190815260200160002060030160009054906101000a900460ff169050919050565b600460149054906101000a900460ff1681565b6000600460149054906101000a900460ff1680156121025750612101612f6e565b5b905090565b600033600460149054906101000a900460ff16151561217757600560008273ffffffffffffffffffffffffffffffffffffffff1673ffffffffffffffffffffffffffffffffffffffff16815260200190815260200160002060009054906101000a900460ff1615151561217657fe5b5b6121818484612f77565b91505092915050565b6000600860008373ffffffffffffffffffffffffffffffffffffffff1673ffffffffffffffffffffffffffffffffffffffff16815260200190815260200160002060030160019054906101000a900460ff169050919050565b600a5481565b600d5481565b600460009054906101000a900473ffffffffffffffffffffffffffffffffffffffff1681565b61221d6120e0565b15151561222657fe5b60008173ffffffffffffffffffffffffffffffffffffffff1614151561224857fe5b600b60019054906101000a900473ffffffffffffffffffffffffffffffffffffffff1673ffffffffffffffffffffffffffffffffffffffff163373ffffffffffffffffffffffffffffffffffffffff16141515156122a257fe5b6004808111156122ae57fe5b6122b6611f11565b60048111156122c157fe5b1415156122ca57fe5b80600c60006101000a81548173ffffffffffffffffffffffffffffffffffffffff021916908373ffffffffffffffffffffffffffffffffffffffff160217905550600c60009054906101000a900473ffffffffffffffffffffffffffffffffffffffff1673ffffffffffffffffffffffffffffffffffffffff166361d3d7a66000604051602001526040518163ffffffff167c0100000000000000000000000000000000000000000000000000000000028152600401602060405180830381600087803b151561239957600080fd5b6102c65a03f115156123aa57600080fd5b505050604051805190501515156123bd57fe5b600054600c60009054906101000a900473ffffffffffffffffffffffffffffffffffffffff1673ffffffffffffffffffffffffffffffffffffffff16634b2ba0dd6000604051602001526040518163ffffffff167c0100000000000000000000000000000000000000000000000000000000028152600401602060405180830381600087803b151561244e57600080fd5b6102c65a03f1151561245f57600080fd5b505050604051805190501415151561247357fe5b7f7845d5aa74cc410e35571258d954f23b82276e160fe8c188fa80566580f279cc600c60009054906101000a900473ffffffffffffffffffffffffffffffffffffffff16604051808273ffffffffffffffffffffffffffffffffffffffff1673ffffffffffffffffffffffffffffffffffffffff16815260200191505060405180910390a150565b6000600260008473ffffffffffffffffffffffffffffffffffffffff1673ffffffffffffffffffffffffffffffffffffffff16815260200190815260200160002060008373ffffffffffffffffffffffffffffffffffffffff1673ffffffffffffffffffffffffffffffffffffffff16815260200190815260200160002054905092915050565b600080600360009054906101000a900473ffffffffffffffffffffffffffffffffffffffff1673ffffffffffffffffffffffffffffffffffffffff163373ffffffffffffffffffffffffffffffffffffffff161415156125e157600080fd5b600073ffffffffffffffffffffffffffffffffffffffff168373ffffffffffffffffffffffffffffffffffffffff161415151561261d57600080fd5b8291508173ffffffffffffffffffffffffffffffffffffffff166370a08231306000604051602001526040518263ffffffff167c0100000000000000000000000000000000000000000000000000000000028152600401808273ffffffffffffffffffffffffffffffffffffffff1673ffffffffffffffffffffffffffffffffffffffff168152602001915050602060405180830381600087803b15156126c357600080fd5b6102c65a03f115156126d457600080fd5b5050506040518051905090508173ffffffffffffffffffffffffffffffffffffffff1663a9059cbb600360009054906101000a900473ffffffffffffffffffffffffffffffffffffffff16836000604051602001526040518363ffffffff167c0100000000000000000000000000000000000000000000000000000000028152600401808373ffffffffffffffffffffffffffffffffffffffff1673ffffffffffffffffffffffffffffffffffffffff16815260200182815260200192505050602060405180830381600087803b15156127ad57600080fd5b6102c65a03f115156127be57600080fd5b5050506040518051905050600360009054906101000a900473ffffffffffffffffffffffffffffffffffffffff1673ffffffffffffffffffffffffffffffffffffffff168373ffffffffffffffffffffffffffffffffffffffff167ff931edb47c50b4b4104c187b5814a9aef5f709e17e2ecf9617e860cacade929c836040518082815260200191505060405180910390a3505050565b60006001905090565b6000600660009054906101000a900460ff16151561287857fe5b600360009054906101000a900473ffffffffffffffffffffffffffffffffffffffff1673ffffffffffffffffffffffffffffffffffffffff163373ffffffffffffffffffffffffffffffffffffffff161415156128d457600080fd5b600b60009054906101000a900460ff161515156128ed57fe5b835185511415156128fa57fe5b8251845114151561290757fe5b8151835114151561291457fe5b600090505b84518110156129e557600073ffffffffffffffffffffffffffffffffffffffff16858281518110151561294857fe5b9060200190602002015173ffffffffffffffffffffffffffffffffffffffff161415156129d8576129d7858281518110151561298057fe5b90602001906020020151858381518110151561299857fe5b9060200190602002015185848151811015156129b057fe5b9060200190602002015185858151811015156129c857fe5b90602001906020020151613100565b5b8080600101915050612919565b6001600b60006101000a81548160ff0219169083151502179055505050505050565b600360009054906101000a900473ffffffffffffffffffffffffffffffffffffffff1673ffffffffffffffffffffffffffffffffffffffff163373ffffffffffffffffffffffffffffffffffffffff16141515612a6357600080fd5b600073ffffffffffffffffffffffffffffffffffffffff168173ffffffffffffffffffffffffffffffffffffffff1614151515612a9f57600080fd5b8073ffffffffffffffffffffffffffffffffffffffff16600360009054906101000a900473ffffffffffffffffffffffffffffffffffffffff1673ffffffffffffffffffffffffffffffffffffffff167f8be0079c531659141344cd1fd0a4f28419497f9722a3daafe3b4186f6b6457e060405160405180910390a380600360006101000a81548173ffffffffffffffffffffffffffffffffffffffff021916908373ffffffffffffffffffffffffffffffffffffffff16021790555050565b60008173ffffffffffffffffffffffffffffffffffffffff16141515612b8157fe5b600b60019054906101000a900473ffffffffffffffffffffffffffffffffffffffff1673ffffffffffffffffffffffffffffffffffffffff163373ffffffffffffffffffffffffffffffffffffffff1614151515612bdb57fe5b80600b60016101000a81548173ffffffffffffffffffffffffffffffffffffffff021916908373ffffffffffffffffffffffffffffffffffffffff16021790555050565b600080600260008673ffffffffffffffffffffffffffffffffffffffff1673ffffffffffffffffffffffffffffffffffffffff16815260200190815260200160002060003373ffffffffffffffffffffffffffffffffffffffff1673ffffffffffffffffffffffffffffffffffffffff168152602001908152602001600020549050612cea600160008673ffffffffffffffffffffffffffffffffffffffff1673ffffffffffffffffffffffffffffffffffffffff1681526020019081526020016000205484612ecd565b600160008673ffffffffffffffffffffffffffffffffffffffff1673ffffffffffffffffffffffffffffffffffffffff16815260200190815260200160002081905550612d76600160008773ffffffffffffffffffffffffffffffffffffffff1673ffffffffffffffffffffffffffffffffffffffff1681526020019081526020016000205484612eb4565b600160008773ffffffffffffffffffffffffffffffffffffffff1673ffffffffffffffffffffffffffffffffffffffff16815260200190815260200160002081905550612dc38184612eb4565b600260008773ffffffffffffffffffffffffffffffffffffffff1673ffffffffffffffffffffffffffffffffffffffff16815260200190815260200160002060003373ffffffffffffffffffffffffffffffffffffffff1673ffffffffffffffffffffffffffffffffffffffff168152602001908152602001600020819055508373ffffffffffffffffffffffffffffffffffffffff168573ffffffffffffffffffffffffffffffffffffffff167fddf252ad1be2c89b69c2b068fc378daa952ba7f163c4a11628f55a4df523b3ef856040518082815260200191505060405180910390a360019150509392505050565b6000828211151515612ec257fe5b818303905092915050565b6000808284019050838110158015612ee55750828110155b1515612eed57fe5b8091505092915050565b600460009054906101000a900473ffffffffffffffffffffffffffffffffffffffff1673ffffffffffffffffffffffffffffffffffffffff163373ffffffffffffffffffffffffffffffffffffffff1614151515612f5157fe5b6001600460146101000a81548160ff021916908315150217905550565b60006001905090565b6000612fc2600160003373ffffffffffffffffffffffffffffffffffffffff1673ffffffffffffffffffffffffffffffffffffffff1681526020019081526020016000205483612eb4565b600160003373ffffffffffffffffffffffffffffffffffffffff1673ffffffffffffffffffffffffffffffffffffffff1681526020019081526020016000208190555061304e600160008573ffffffffffffffffffffffffffffffffffffffff1673ffffffffffffffffffffffffffffffffffffffff1681526020019081526020016000205483612ecd565b600160008573ffffffffffffffffffffffffffffffffffffffff1673ffffffffffffffffffffffffffffffffffffffff168152602001908152602001600020819055508273ffffffffffffffffffffffffffffffffffffffff163373ffffffffffffffffffffffffffffffffffffffff167fddf252ad1be2c89b69c2b068fc378daa952ba7f163c4a11628f55a4df523b3ef846040518082815260200191505060405180910390a36001905092915050565b600660009054906101000a900460ff16151561311857fe5b600360009054906101000a900473ffffffffffffffffffffffffffffffffffffffff1673ffffffffffffffffffffffffffffffffffffffff163373ffffffffffffffffffffffffffffffffffffffff1614151561317457600080fd5b600073ffffffffffffffffffffffffffffffffffffffff168473ffffffffffffffffffffffffffffffffffffffff16141515156131ad57fe5b6131b684612074565b151561323257600980548060010182816131d09190613386565b9160005260206000209001600086909190916101000a81548173ffffffffffffffffffffffffffffffffffffffff021916908373ffffffffffffffffffffffffffffffffffffffff16021790555050600a600081548092919060010191905055505b60a06040519081016040528084815260200183815260200182815260200160011515815260200160001515815250600860008673ffffffffffffffffffffffffffffffffffffffff1673ffffffffffffffffffffffffffffffffffffffff16815260200190815260200160002060008201518160000155602082015181600101556040820151816002015560608201518160030160006101000a81548160ff02191690831515021790555060808201518160030160016101000a81548160ff02191690831515021790555090505050505050565b828054600181600116156101000203166002900490600052602060002090601f016020900481019282601f1061334757805160ff1916838001178555613375565b82800160010185558215613375579182015b82811115613374578251825591602001919060010190613359565b5b50905061338291906133b2565b5090565b8154818355818115116133ad578183600052602060002091820191016133ac91906133b2565b5b505050565b6133d491905b808211156133d05760008160009055506001016133b8565b5090565b905600a165627a7a72305820c0176244727fc93851f387d6809fa0e5c6707449ccb772864933574066e9cbc70029",
  "source": "/**\n * This smart contract code is Copyright 2017 TokenMarket Ltd. For more information see https://tokenmarket.net\n *\n * Licensed under the Apache License, version 2.0: https://github.com/TokenMarketNet/ico/blob/master/LICENSE.txt\n */\n\npragma solidity ^0.4.19;\n\nimport \"./UpgradeableToken.sol\";\nimport \"./ReleasableToken.sol\";\nimport \"./MintableTokenExt.sol\";\n\n/**\n * A crowdsaled token.\n *\n * An ERC-20 token designed specifically for crowdsales with investor protection and further development path.\n *\n * - The token transfer() is disabled until the crowdsale is over\n * - The token contract gives an opt-in upgrade path to a new contract\n * - The same token can be part of several crowdsales through approve() mechanism\n * - The token can be capped (supply set in the constructor) or uncapped (crowdsale contract can mint new tokens)\n *\n */\ncontract CrowdsaleTokenExt is ReleasableToken, MintableTokenExt, UpgradeableToken {\n\n  /** Name and symbol were updated. */\n  event UpdatedTokenInformation(string newName, string newSymbol);\n\n  event ClaimedTokens(address indexed _token, address indexed _controller, uint _amount);\n\n  string public name;\n\n  string public symbol;\n\n  uint public decimals;\n\n  /* Minimum ammount of tokens every buyer can buy. */\n  uint public minCap;\n\n  /**\n   * Construct the token.\n   *\n   * This token must be created through a team multisig wallet, so that it is owned by that wallet.\n   *\n   * @param _name Token name\n   * @param _symbol Token symbol - should be all caps\n   * @param _initialSupply How many tokens we start with\n   * @param _decimals Number of decimal places\n   * @param _mintable Are new tokens created over the crowdsale or do we distribute only the initial supply? Note that when the token becomes transferable the minting always ends.\n   */\n  function CrowdsaleTokenExt(string _name, string _symbol, uint _initialSupply, uint _decimals, bool _mintable, uint _globalMinCap)\n    UpgradeableToken(msg.sender) {\n\n    // Create any address, can be transferred\n    // to team multisig via changeOwner(),\n    // also remember to call setUpgradeMaster()\n    owner = msg.sender;\n\n    name = _name;\n    symbol = _symbol;\n\n    totalSupply = _initialSupply;\n\n    decimals = _decimals;\n\n    minCap = _globalMinCap;\n\n    // Create initially all balance on the team multisig\n    balances[owner] = totalSupply;\n\n    if (totalSupply > 0) {\n      Minted(owner, totalSupply);\n    }\n\n    // No more new supply allowed after the token creation\n    if (!_mintable) {\n      mintingFinished = true;\n      assert(totalSupply == 0); // Cannot create a token without supply and no minting\n    }\n  }\n\n  /**\n   * When token is released to be transferable, enforce no new tokens can be created.\n   */\n  function releaseTokenTransfer() public onlyReleaseAgent {\n    mintingFinished = true;\n    super.releaseTokenTransfer();\n  }\n\n  /**\n   * Allow upgrade agent functionality kick in only if the crowdsale was success.\n   */\n  function canUpgrade() public constant returns(bool) {\n    return released && super.canUpgrade();\n  }\n\n  /**\n   * Owner can update token information here.\n   *\n   * It is often useful to conceal the actual token association, until\n   * the token operations, like central issuance or reissuance have been completed.\n   *\n   * This function allows the token owner to rename the token after the operations\n   * have been completed and then point the audience to use the token contract.\n   */\n  function setTokenInformation(string _name, string _symbol) onlyOwner {\n    name = _name;\n    symbol = _symbol;\n\n    UpdatedTokenInformation(name, symbol);\n  }\n\n  /**\n   * Claim tokens that were accidentally sent to this contract.\n   *\n   * @param _token The address of the token contract that you want to recover.\n   */\n  function claimTokens(address _token) public onlyOwner {\n    require(_token != address(0));\n\n    ERC20 token = ERC20(_token);\n    uint balance = token.balanceOf(this);\n    token.transfer(owner, balance);\n\n    ClaimedTokens(_token, owner, balance);\n  }\n\n}\n",
  "sourcePath": "/Users/kevinjohnson/Documents/GitHub/plaza-crowdsale/contracts/CrowdsaleTokenExt.sol",
  "compiler": {
    "name": "solc",
    "version": "0.4.19+commit.c4cbbb05.Emscripten.clang"
  },
  "schemaVersion": "2.0.0",
  "updatedAt": "2018-03-13T07:39:17.646Z"
}