{
  "contractName": "MintedTokenCappedCrowdsaleExt",
  "abi": [
    {
      "constant": true,
      "inputs": [],
      "name": "ownerTestValue",
      "outputs": [
        {
          "name": "",
          "type": "uint256"
        }
      ],
      "payable": false,
      "stateMutability": "view",
      "type": "function"
    },
    {
      "constant": false,
      "inputs": [
        {
          "name": "addr",
          "type": "address"
        }
      ],
      "name": "invest",
      "outputs": [],
      "payable": true,
      "stateMutability": "payable",
      "type": "function"
    },
    {
      "constant": true,
      "inputs": [
        {
          "name": "addr",
          "type": "address"
        },
        {
          "name": "tokenAmount",
          "type": "uint256"
        }
      ],
      "name": "isBreakingInvestorCap",
      "outputs": [
        {
          "name": "limitBroken",
          "type": "bool"
        }
      ],
      "payable": false,
      "stateMutability": "view",
      "type": "function"
    },
    {
      "constant": false,
      "inputs": [
        {
          "name": "addrs",
          "type": "address[]"
        }
      ],
      "name": "updateJoinedCrowdsalesMultiple",
      "outputs": [],
      "payable": false,
      "stateMutability": "nonpayable",
      "type": "function"
    },
    {
      "constant": true,
      "inputs": [],
      "name": "isPricingSane",
      "outputs": [
        {
          "name": "sane",
          "type": "bool"
        }
      ],
      "payable": false,
      "stateMutability": "view",
      "type": "function"
    },
    {
      "constant": true,
      "inputs": [],
      "name": "name",
      "outputs": [
        {
          "name": "",
          "type": "string"
        }
      ],
      "payable": false,
      "stateMutability": "view",
      "type": "function"
    },
    {
      "constant": true,
      "inputs": [],
      "name": "endsAt",
      "outputs": [
        {
          "name": "",
          "type": "uint256"
        }
      ],
      "payable": false,
      "stateMutability": "view",
      "type": "function"
    },
    {
      "constant": true,
      "inputs": [],
      "name": "isUpdatable",
      "outputs": [
        {
          "name": "",
          "type": "bool"
        }
      ],
      "payable": false,
      "stateMutability": "view",
      "type": "function"
    },
    {
      "constant": true,
      "inputs": [
        {
          "name": "addr",
          "type": "address"
        }
      ],
      "name": "isAddressWhitelisted",
      "outputs": [
        {
          "name": "",
          "type": "bool"
        }
      ],
      "payable": false,
      "stateMutability": "view",
      "type": "function"
    },
    {
      "constant": true,
      "inputs": [],
      "name": "minimumFundingGoal",
      "outputs": [
        {
          "name": "",
          "type": "uint256"
        }
      ],
      "payable": false,
      "stateMutability": "view",
      "type": "function"
    },
    {
      "constant": true,
      "inputs": [],
      "name": "getState",
      "outputs": [
        {
          "name": "",
          "type": "uint8"
        }
      ],
      "payable": false,
      "stateMutability": "view",
      "type": "function"
    },
    {
      "constant": false,
      "inputs": [
        {
          "name": "addr",
          "type": "address"
        }
      ],
      "name": "setFinalizeAgent",
      "outputs": [],
      "payable": false,
      "stateMutability": "nonpayable",
      "type": "function"
    },
    {
      "constant": true,
      "inputs": [],
      "name": "whitelistedParticipantsLength",
      "outputs": [
        {
          "name": "",
          "type": "uint256"
        }
      ],
      "payable": false,
      "stateMutability": "view",
      "type": "function"
    },
    {
      "constant": true,
      "inputs": [
        {
          "name": "",
          "type": "address"
        }
      ],
      "name": "investedAmountOf",
      "outputs": [
        {
          "name": "",
          "type": "uint256"
        }
      ],
      "payable": false,
      "stateMutability": "view",
      "type": "function"
    },
    {
      "constant": true,
      "inputs": [],
      "name": "finalizeAgent",
      "outputs": [
        {
          "name": "",
          "type": "address"
        }
      ],
      "payable": false,
      "stateMutability": "view",
      "type": "function"
    },
    {
      "constant": true,
      "inputs": [
        {
          "name": "addr",
          "type": "address"
        }
      ],
      "name": "isTierJoined",
      "outputs": [
        {
          "name": "",
          "type": "bool"
        }
      ],
      "payable": false,
      "stateMutability": "view",
      "type": "function"
    },
    {
      "constant": true,
      "inputs": [],
      "name": "areReservedTokensDistributed",
      "outputs": [
        {
          "name": "",
          "type": "bool"
        }
      ],
      "payable": false,
      "stateMutability": "view",
      "type": "function"
    },
    {
      "constant": false,
      "inputs": [
        {
          "name": "tokens",
          "type": "uint256"
        }
      ],
      "name": "setMaximumSellableTokens",
      "outputs": [],
      "payable": false,
      "stateMutability": "nonpayable",
      "type": "function"
    },
    {
      "constant": true,
      "inputs": [],
      "name": "maximumSellableTokens",
      "outputs": [
        {
          "name": "",
          "type": "uint256"
        }
      ],
      "payable": false,
      "stateMutability": "view",
      "type": "function"
    },
    {
      "constant": true,
      "inputs": [],
      "name": "weiRaised",
      "outputs": [
        {
          "name": "",
          "type": "uint256"
        }
      ],
      "payable": false,
      "stateMutability": "view",
      "type": "function"
    },
    {
      "constant": true,
      "inputs": [],
      "name": "isCrowdsale",
      "outputs": [
        {
          "name": "",
          "type": "bool"
        }
      ],
      "payable": false,
      "stateMutability": "view",
      "type": "function"
    },
    {
      "constant": false,
      "inputs": [],
      "name": "finalize",
      "outputs": [],
      "payable": false,
      "stateMutability": "nonpayable",
      "type": "function"
    },
    {
      "constant": false,
      "inputs": [
        {
          "name": "_pricingStrategy",
          "type": "address"
        }
      ],
      "name": "setPricingStrategy",
      "outputs": [],
      "payable": false,
      "stateMutability": "nonpayable",
      "type": "function"
    },
    {
      "constant": true,
      "inputs": [],
      "name": "tokensSold",
      "outputs": [
        {
          "name": "",
          "type": "uint256"
        }
      ],
      "payable": false,
      "stateMutability": "view",
      "type": "function"
    },
    {
      "constant": false,
      "inputs": [],
      "name": "halt",
      "outputs": [],
      "payable": false,
      "stateMutability": "nonpayable",
      "type": "function"
    },
    {
      "constant": true,
      "inputs": [],
      "name": "MAX_INVESTMENTS_BEFORE_MULTISIG_CHANGE",
      "outputs": [
        {
          "name": "",
          "type": "uint256"
        }
      ],
      "payable": false,
      "stateMutability": "view",
      "type": "function"
    },
    {
      "constant": false,
      "inputs": [
        {
          "name": "newOneTokenInWei",
          "type": "uint256"
        }
      ],
      "name": "updateRate",
      "outputs": [],
      "payable": false,
      "stateMutability": "nonpayable",
      "type": "function"
    },
    {
      "constant": false,
      "inputs": [
        {
          "name": "time",
          "type": "uint256"
        }
      ],
      "name": "setEndsAt",
      "outputs": [],
      "payable": false,
      "stateMutability": "nonpayable",
      "type": "function"
    },
    {
      "constant": true,
      "inputs": [],
      "name": "pricingStrategy",
      "outputs": [
        {
          "name": "",
          "type": "address"
        }
      ],
      "payable": false,
      "stateMutability": "view",
      "type": "function"
    },
    {
      "constant": true,
      "inputs": [],
      "name": "isMinimumGoalReached",
      "outputs": [
        {
          "name": "reached",
          "type": "bool"
        }
      ],
      "payable": false,
      "stateMutability": "view",
      "type": "function"
    },
    {
      "constant": true,
      "inputs": [],
      "name": "joinedCrowdsalesLenMax",
      "outputs": [
        {
          "name": "",
          "type": "uint8"
        }
      ],
      "payable": false,
      "stateMutability": "view",
      "type": "function"
    },
    {
      "constant": false,
      "inputs": [
        {
          "name": "addr",
          "type": "address"
        },
        {
          "name": "status",
          "type": "bool"
        },
        {
          "name": "minCap",
          "type": "uint256"
        },
        {
          "name": "maxCap",
          "type": "uint256"
        }
      ],
      "name": "setEarlyParticipantWhitelist",
      "outputs": [],
      "payable": false,
      "stateMutability": "nonpayable",
      "type": "function"
    },
    {
      "constant": true,
      "inputs": [],
      "name": "owner",
      "outputs": [
        {
          "name": "",
          "type": "address"
        }
      ],
      "payable": false,
      "stateMutability": "view",
      "type": "function"
    },
    {
      "constant": true,
      "inputs": [],
      "name": "multisigWallet",
      "outputs": [
        {
          "name": "",
          "type": "address"
        }
      ],
      "payable": false,
      "stateMutability": "view",
      "type": "function"
    },
    {
      "constant": true,
      "inputs": [
        {
          "name": "",
          "type": "address"
        }
      ],
      "name": "tokenAmountOf",
      "outputs": [
        {
          "name": "",
          "type": "uint256"
        }
      ],
      "payable": false,
      "stateMutability": "view",
      "type": "function"
    },
    {
      "constant": true,
      "inputs": [
        {
          "name": "weiAmount",
          "type": "uint256"
        },
        {
          "name": "tokenAmount",
          "type": "uint256"
        },
        {
          "name": "weiRaisedTotal",
          "type": "uint256"
        },
        {
          "name": "tokensSoldTotal",
          "type": "uint256"
        }
      ],
      "name": "isBreakingCap",
      "outputs": [
        {
          "name": "limitBroken",
          "type": "bool"
        }
      ],
      "payable": false,
      "stateMutability": "view",
      "type": "function"
    },
    {
      "constant": false,
      "inputs": [],
      "name": "buy",
      "outputs": [],
      "payable": true,
      "stateMutability": "payable",
      "type": "function"
    },
    {
      "constant": true,
      "inputs": [],
      "name": "isFinalizerSane",
      "outputs": [
        {
          "name": "sane",
          "type": "bool"
        }
      ],
      "payable": false,
      "stateMutability": "view",
      "type": "function"
    },
    {
      "constant": true,
      "inputs": [],
      "name": "startsAt",
      "outputs": [
        {
          "name": "",
          "type": "uint256"
        }
      ],
      "payable": false,
      "stateMutability": "view",
      "type": "function"
    },
    {
      "constant": true,
      "inputs": [
        {
          "name": "addr",
          "type": "address"
        }
      ],
      "name": "getTierPosition",
      "outputs": [
        {
          "name": "",
          "type": "uint8"
        }
      ],
      "payable": false,
      "stateMutability": "view",
      "type": "function"
    },
    {
      "constant": false,
      "inputs": [
        {
          "name": "addrs",
          "type": "address[]"
        },
        {
          "name": "statuses",
          "type": "bool[]"
        },
        {
          "name": "minCaps",
          "type": "uint256[]"
        },
        {
          "name": "maxCaps",
          "type": "uint256[]"
        }
      ],
      "name": "setEarlyParticipantWhitelistMultiple",
      "outputs": [],
      "payable": false,
      "stateMutability": "nonpayable",
      "type": "function"
    },
    {
      "constant": true,
      "inputs": [],
      "name": "finalized",
      "outputs": [
        {
          "name": "",
          "type": "bool"
        }
      ],
      "payable": false,
      "stateMutability": "view",
      "type": "function"
    },
    {
      "constant": true,
      "inputs": [],
      "name": "halted",
      "outputs": [
        {
          "name": "",
          "type": "bool"
        }
      ],
      "payable": false,
      "stateMutability": "view",
      "type": "function"
    },
    {
      "constant": true,
      "inputs": [],
      "name": "canDistributeReservedTokens",
      "outputs": [
        {
          "name": "",
          "type": "bool"
        }
      ],
      "payable": false,
      "stateMutability": "view",
      "type": "function"
    },
    {
      "constant": true,
      "inputs": [
        {
          "name": "",
          "type": "uint256"
        }
      ],
      "name": "joinedCrowdsales",
      "outputs": [
        {
          "name": "",
          "type": "address"
        }
      ],
      "payable": false,
      "stateMutability": "view",
      "type": "function"
    },
    {
      "constant": false,
      "inputs": [
        {
          "name": "time",
          "type": "uint256"
        }
      ],
      "name": "setStartsAt",
      "outputs": [],
      "payable": false,
      "stateMutability": "nonpayable",
      "type": "function"
    },
    {
      "constant": false,
      "inputs": [
        {
          "name": "addr",
          "type": "address"
        },
        {
          "name": "tokensBought",
          "type": "uint256"
        }
      ],
      "name": "updateEarlyParticipantWhitelist",
      "outputs": [],
      "payable": false,
      "stateMutability": "nonpayable",
      "type": "function"
    },
    {
      "constant": true,
      "inputs": [],
      "name": "getLastTier",
      "outputs": [
        {
          "name": "",
          "type": "address"
        }
      ],
      "payable": false,
      "stateMutability": "view",
      "type": "function"
    },
    {
      "constant": true,
      "inputs": [
        {
          "name": "",
          "type": "address"
        }
      ],
      "name": "earlyParticipantWhitelist",
      "outputs": [
        {
          "name": "status",
          "type": "bool"
        },
        {
          "name": "minCap",
          "type": "uint256"
        },
        {
          "name": "maxCap",
          "type": "uint256"
        }
      ],
      "payable": false,
      "stateMutability": "view",
      "type": "function"
    },
    {
      "constant": false,
      "inputs": [],
      "name": "unhalt",
      "outputs": [],
      "payable": false,
      "stateMutability": "nonpayable",
      "type": "function"
    },
    {
      "constant": false,
      "inputs": [
        {
          "name": "reservedTokensDistributionBatch",
          "type": "uint256"
        }
      ],
      "name": "distributeReservedTokens",
      "outputs": [],
      "payable": false,
      "stateMutability": "nonpayable",
      "type": "function"
    },
    {
      "constant": true,
      "inputs": [],
      "name": "isCrowdsaleFull",
      "outputs": [
        {
          "name": "",
          "type": "bool"
        }
      ],
      "payable": false,
      "stateMutability": "view",
      "type": "function"
    },
    {
      "constant": true,
      "inputs": [],
      "name": "investorCount",
      "outputs": [
        {
          "name": "",
          "type": "uint256"
        }
      ],
      "payable": false,
      "stateMutability": "view",
      "type": "function"
    },
    {
      "constant": true,
      "inputs": [
        {
          "name": "",
          "type": "uint256"
        }
      ],
      "name": "whitelistedParticipants",
      "outputs": [
        {
          "name": "",
          "type": "address"
        }
      ],
      "payable": false,
      "stateMutability": "view",
      "type": "function"
    },
    {
      "constant": true,
      "inputs": [],
      "name": "joinedCrowdsalesLen",
      "outputs": [
        {
          "name": "",
          "type": "uint8"
        }
      ],
      "payable": false,
      "stateMutability": "view",
      "type": "function"
    },
    {
      "constant": true,
      "inputs": [],
      "name": "isWhiteListed",
      "outputs": [
        {
          "name": "",
          "type": "bool"
        }
      ],
      "payable": false,
      "stateMutability": "view",
      "type": "function"
    },
    {
      "constant": false,
      "inputs": [
        {
          "name": "newOwner",
          "type": "address"
        }
      ],
      "name": "transferOwnership",
      "outputs": [],
      "payable": false,
      "stateMutability": "nonpayable",
      "type": "function"
    },
    {
      "constant": false,
      "inputs": [
        {
          "name": "addr",
          "type": "address"
        }
      ],
      "name": "setMultisig",
      "outputs": [],
      "payable": false,
      "stateMutability": "nonpayable",
      "type": "function"
    },
    {
      "constant": true,
      "inputs": [],
      "name": "token",
      "outputs": [
        {
          "name": "",
          "type": "address"
        }
      ],
      "payable": false,
      "stateMutability": "view",
      "type": "function"
    },
    {
      "inputs": [
        {
          "name": "_name",
          "type": "string"
        },
        {
          "name": "_token",
          "type": "address"
        },
        {
          "name": "_pricingStrategy",
          "type": "address"
        },
        {
          "name": "_multisigWallet",
          "type": "address"
        },
        {
          "name": "_start",
          "type": "uint256"
        },
        {
          "name": "_end",
          "type": "uint256"
        },
        {
          "name": "_minimumFundingGoal",
          "type": "uint256"
        },
        {
          "name": "_maximumSellableTokens",
          "type": "uint256"
        },
        {
          "name": "_isUpdatable",
          "type": "bool"
        },
        {
          "name": "_isWhiteListed",
          "type": "bool"
        }
      ],
      "payable": false,
      "stateMutability": "nonpayable",
      "type": "constructor"
    },
    {
      "payable": true,
      "stateMutability": "payable",
      "type": "fallback"
    },
    {
      "anonymous": false,
      "inputs": [
        {
          "indexed": false,
          "name": "newMaximumSellableTokens",
          "type": "uint256"
        }
      ],
      "name": "MaximumSellableTokensChanged",
      "type": "event"
    },
    {
      "anonymous": false,
      "inputs": [
        {
          "indexed": false,
          "name": "investor",
          "type": "address"
        },
        {
          "indexed": false,
          "name": "weiAmount",
          "type": "uint256"
        },
        {
          "indexed": false,
          "name": "tokenAmount",
          "type": "uint256"
        },
        {
          "indexed": false,
          "name": "customerId",
          "type": "uint128"
        }
      ],
      "name": "Invested",
      "type": "event"
    },
    {
      "anonymous": false,
      "inputs": [
        {
          "indexed": false,
          "name": "addr",
          "type": "address"
        },
        {
          "indexed": false,
          "name": "status",
          "type": "bool"
        },
        {
          "indexed": false,
          "name": "minCap",
          "type": "uint256"
        },
        {
          "indexed": false,
          "name": "maxCap",
          "type": "uint256"
        }
      ],
      "name": "Whitelisted",
      "type": "event"
    },
    {
      "anonymous": false,
      "inputs": [
        {
          "indexed": false,
          "name": "addr",
          "type": "address"
        },
        {
          "indexed": false,
          "name": "status",
          "type": "bool"
        },
        {
          "indexed": false,
          "name": "minCap",
          "type": "uint256"
        },
        {
          "indexed": false,
          "name": "maxCap",
          "type": "uint256"
        }
      ],
      "name": "WhitelistItemChanged",
      "type": "event"
    },
    {
      "anonymous": false,
      "inputs": [
        {
          "indexed": false,
          "name": "newStartsAt",
          "type": "uint256"
        }
      ],
      "name": "StartsAtChanged",
      "type": "event"
    },
    {
      "anonymous": false,
      "inputs": [
        {
          "indexed": false,
          "name": "newEndsAt",
          "type": "uint256"
        }
      ],
      "name": "EndsAtChanged",
      "type": "event"
    },
    {
      "anonymous": false,
      "inputs": [
        {
          "indexed": true,
          "name": "previousOwner",
          "type": "address"
        },
        {
          "indexed": true,
          "name": "newOwner",
          "type": "address"
        }
      ],
      "name": "OwnershipTransferred",
      "type": "event"
    }
  ],
  "bytecode": "0x606060405260056001556000600a556000600b556000600c556000600f60006101000a81548160ff021916908360ff1602179055506032600f60016101000a81548160ff021916908360ff16021790555034156200005c57600080fd5b60405162004dc038038062004dc083398101604052808051820191906020018051906020019091908051906020019091908051906020019091908051906020019091908051906020019091908051906020019091908051906020019091908051906020019091908051906020019091905050898989898989898888336000806101000a81548173ffffffffffffffffffffffffffffffffffffffff021916908373ffffffffffffffffffffffffffffffffffffffff160217905550336000806101000a81548173ffffffffffffffffffffffffffffffffffffffff021916908373ffffffffffffffffffffffffffffffffffffffff16021790555088600590805190602001906200016f929190620004de565b5087600260006101000a81548173ffffffffffffffffffffffffffffffffffffffff021916908373ffffffffffffffffffffffffffffffffffffffff160217905550620001d087620002f26401000000000262001e6e176401000000009004565b85600660006101000a81548173ffffffffffffffffffffffffffffffffffffffff021916908373ffffffffffffffffffffffffffffffffffffffff1602179055506000600660009054906101000a900473ffffffffffffffffffffffffffffffffffffffff1673ffffffffffffffffffffffffffffffffffffffff1614156200025857600080fd5b60008514156200026757600080fd5b8460088190555060008414156200027d57600080fd5b836009819055506009546008541015156200029757600080fd5b8260078190555081601360006101000a81548160ff02191690831515021790555080600d60016101000a81548160ff02191690831515021790555050505050505050505082601781905550505050505050505050506200058d565b6000809054906101000a900473ffffffffffffffffffffffffffffffffffffffff1673ffffffffffffffffffffffffffffffffffffffff163373ffffffffffffffffffffffffffffffffffffffff161415156200034e57600080fd5b600073ffffffffffffffffffffffffffffffffffffffff168173ffffffffffffffffffffffffffffffffffffffff16141515156200038857fe5b600073ffffffffffffffffffffffffffffffffffffffff16600360009054906101000a900473ffffffffffffffffffffffffffffffffffffffff1673ffffffffffffffffffffffffffffffffffffffff16141515620003e357fe5b80600360006101000a81548173ffffffffffffffffffffffffffffffffffffffff021916908373ffffffffffffffffffffffffffffffffffffffff160217905550600360009054906101000a900473ffffffffffffffffffffffffffffffffffffffff1673ffffffffffffffffffffffffffffffffffffffff166304bbc2556000604051602001526040518163ffffffff167c0100000000000000000000000000000000000000000000000000000000028152600401602060405180830381600087803b1515620004b357600080fd5b6102c65a03f11515620004c557600080fd5b505050604051805190501515620004db57600080fd5b50565b828054600181600116156101000203166002900490600052602060002090601f016020900481019282601f106200052157805160ff191683800117855562000552565b8280016001018555821562000552579182015b828111156200055157825182559160200191906001019062000534565b5b50905062000561919062000565565b5090565b6200058a91905b80821115620005865760008160009055506001016200056c565b5090565b90565b614823806200059d6000396000f3006060604052600436106102bf576000357c0100000000000000000000000000000000000000000000000000000000900463ffffffff1680630226401d146102c457806303f9c793146102ed578063045b1a0c1461031b57806304fc7c6d14610375578063062b01ce146103cf57806306fdde03146103fc5780630a09284a1461048a5780630e1d2ec8146104b357806313f44d10146104e057806313f4e977146105315780631865c57d1461055a57806319b667da146105915780631a98d0de146105ca5780631aae3460146105f357806321d5c0f614610640578063253ebd921461069557806325e0671f146106e65780632c2de40a146107135780633ad075ea146107365780634042b66f1461075f5780634551dd59146107885780634bb278f3146107b557806350c67734146107ca578063518ab2a8146108035780635ed7ca5b1461082c5780636203f09f1461084157806369ea17711461086a5780636e50eb3f1461088d57806378b99c24146108b05780637c2e08a3146109055780638507bee814610932578063895594f6146109615780638da5cb5b146109b75780639075becf14610a0c57806397b150ca14610a615780639d3c663f14610aae578063a6f2ae3a14610b04578063a7ba44c314610b0e578063af46868214610b3b578063af58574a14610b64578063b1cb574b14610bb7578063b3f05b9714610cd1578063b9b8af0b14610cfe578063bd71933614610d2b578063bede2cac14610d58578063bf5fc2ee14610dbb578063c12eb19114610dde578063c24becf314610e20578063cb16e6d014610e75578063cb3e64fd14610ed4578063cddaf24114610ee9578063d5d0902114610f0c578063d7e64c0014610f39578063e6d04d5e14610f62578063ebdfa45514610fc5578063ef674e6614610ff4578063f2fde38b14611021578063f3283fba1461105a578063fc0c546a14611093575b600080fd5b34156102cf57600080fd5b6102d76110e8565b6040518082815260200191505060405180910390f35b610319600480803573ffffffffffffffffffffffffffffffffffffffff169060200190919050506110ee565b005b341561032657600080fd5b61035b600480803573ffffffffffffffffffffffffffffffffffffffff169060200190919080359060200190919050506110fc565b604051808215151515815260200191505060405180910390f35b341561038057600080fd5b6103cd60048080359060200190820180359060200190808060200260200160405190810160405280939291908181526020018383602002808284378201915050505050509190505061123e565b005b34156103da57600080fd5b6103e261132a565b604051808215151515815260200191505060405180910390f35b341561040757600080fd5b61040f611411565b6040518080602001828103825283818151815260200191508051906020019080838360005b8381101561044f578082015181840152602081019050610434565b50505050905090810190601f16801561047c5780820380516001836020036101000a031916815260200191505b509250505060405180910390f35b341561049557600080fd5b61049d6114af565b6040518082815260200191505060405180910390f35b34156104be57600080fd5b6104c66114b5565b604051808215151515815260200191505060405180910390f35b34156104eb57600080fd5b610517600480803573ffffffffffffffffffffffffffffffffffffffff169060200190919050506114c8565b604051808215151515815260200191505060405180910390f35b341561053c57600080fd5b61054461156c565b6040518082815260200191505060405180910390f35b341561056557600080fd5b61056d611572565b6040518082600681111561057d57fe5b60ff16815260200191505060405180910390f35b341561059c57600080fd5b6105c8600480803573ffffffffffffffffffffffffffffffffffffffff169060200190919050506117d9565b005b34156105d557600080fd5b6105dd6119bf565b6040518082815260200191505060405180910390f35b34156105fe57600080fd5b61062a600480803573ffffffffffffffffffffffffffffffffffffffff169060200190919050506119cc565b6040518082815260200191505060405180910390f35b341561064b57600080fd5b6106536119e4565b604051808273ffffffffffffffffffffffffffffffffffffffff1673ffffffffffffffffffffffffffffffffffffffff16815260200191505060405180910390f35b34156106a057600080fd5b6106cc600480803573ffffffffffffffffffffffffffffffffffffffff16906020019091905050611a0a565b604051808215151515815260200191505060405180910390f35b34156106f157600080fd5b6106f9611a63565b604051808215151515815260200191505060405180910390f35b341561071e57600080fd5b6107346004808035906020019091905050611b13565b005b341561074157600080fd5b610749611c8d565b6040518082815260200191505060405180910390f35b341561076a57600080fd5b610772611c93565b6040518082815260200191505060405180910390f35b341561079357600080fd5b61079b611c99565b604051808215151515815260200191505060405180910390f35b34156107c057600080fd5b6107c8611ca2565b005b34156107d557600080fd5b610801600480803573ffffffffffffffffffffffffffffffffffffffff16906020019091905050611e6e565b005b341561080e57600080fd5b610816612054565b6040518082815260200191505060405180910390f35b341561083757600080fd5b61083f61205a565b005b341561084c57600080fd5b6108546120d2565b6040518082815260200191505060405180910390f35b341561087557600080fd5b61088b60048080359060200190919050506120d8565b005b341561089857600080fd5b6108ae60048080359060200190919050506122b6565b005b34156108bb57600080fd5b6108c3612560565b604051808273ffffffffffffffffffffffffffffffffffffffff1673ffffffffffffffffffffffffffffffffffffffff16815260200191505060405180910390f35b341561091057600080fd5b610918612586565b604051808215151515815260200191505060405180910390f35b341561093d57600080fd5b610945612595565b604051808260ff1660ff16815260200191505060405180910390f35b341561096c57600080fd5b6109b5600480803573ffffffffffffffffffffffffffffffffffffffff1690602001909190803515159060200190919080359060200190919080359060200190919050506125a8565b005b34156109c257600080fd5b6109ca61288d565b604051808273ffffffffffffffffffffffffffffffffffffffff1673ffffffffffffffffffffffffffffffffffffffff16815260200191505060405180910390f35b3415610a1757600080fd5b610a1f6128b2565b604051808273ffffffffffffffffffffffffffffffffffffffff1673ffffffffffffffffffffffffffffffffffffffff16815260200191505060405180910390f35b3415610a6c57600080fd5b610a98600480803573ffffffffffffffffffffffffffffffffffffffff169060200190919050506128d8565b6040518082815260200191505060405180910390f35b3415610ab957600080fd5b610aea60048080359060200190919080359060200190919080359060200190919080359060200190919050506128f0565b604051808215151515815260200191505060405180910390f35b610b0c612901565b005b3415610b1957600080fd5b610b2161290c565b604051808215151515815260200191505060405180910390f35b3415610b4657600080fd5b610b4e6129bc565b6040518082815260200191505060405180910390f35b3415610b6f57600080fd5b610b9b600480803573ffffffffffffffffffffffffffffffffffffffff169060200190919050506129c2565b604051808260ff1660ff16815260200191505060405180910390f35b3415610bc257600080fd5b610ccf600480803590602001908201803590602001908080602002602001604051908101604052809392919081815260200183836020028082843782019150505050505091908035906020019082018035906020019080806020026020016040519081016040528093929190818152602001838360200280828437820191505050505050919080359060200190820180359060200190808060200260200160405190810160405280939291908181526020018383602002808284378201915050505050509190803590602001908201803590602001908080602002602001604051908101604052809392919081815260200183836020028082843782019150505050505091905050612a1b565b005b3415610cdc57600080fd5b610ce4612b52565b604051808215151515815260200191505060405180910390f35b3415610d0957600080fd5b610d11612b65565b604051808215151515815260200191505060405180910390f35b3415610d3657600080fd5b610d3e612b78565b604051808215151515815260200191505060405180910390f35b3415610d6357600080fd5b610d796004808035906020019091905050612dec565b604051808273ffffffffffffffffffffffffffffffffffffffff1673ffffffffffffffffffffffffffffffffffffffff16815260200191505060405180910390f35b3415610dc657600080fd5b610ddc6004808035906020019091905050612e2b565b005b3415610de957600080fd5b610e1e600480803573ffffffffffffffffffffffffffffffffffffffff169060200190919080359060200190919050506130c4565b005b3415610e2b57600080fd5b610e3361339b565b604051808273ffffffffffffffffffffffffffffffffffffffff1673ffffffffffffffffffffffffffffffffffffffff16815260200191505060405180910390f35b3415610e8057600080fd5b610eac600480803573ffffffffffffffffffffffffffffffffffffffff16906020019091905050613416565b6040518084151515158152602001838152602001828152602001935050505060405180910390f35b3415610edf57600080fd5b610ee761344d565b005b3415610ef457600080fd5b610f0a60048080359060200190919050506134df565b005b3415610f1757600080fd5b610f1f61369c565b604051808215151515815260200191505060405180910390f35b3415610f4457600080fd5b610f4c6136ab565b6040518082815260200191505060405180910390f35b3415610f6d57600080fd5b610f8360048080359060200190919050506136b1565b604051808273ffffffffffffffffffffffffffffffffffffffff1673ffffffffffffffffffffffffffffffffffffffff16815260200191505060405180910390f35b3415610fd057600080fd5b610fd86136f0565b604051808260ff1660ff16815260200191505060405180910390f35b3415610fff57600080fd5b611007613703565b604051808215151515815260200191505060405180910390f35b341561102c57600080fd5b611058600480803573ffffffffffffffffffffffffffffffffffffffff16906020019091905050613716565b005b341561106557600080fd5b611091600480803573ffffffffffffffffffffffffffffffffffffffff1690602001909190505061386b565b005b341561109e57600080fd5b6110a661391b565b604051808273ffffffffffffffffffffffffffffffffffffffff1673ffffffffffffffffffffffffffffffffffffffff16815260200191505060405180910390f35b60165481565b6110f9816000613941565b50565b600080600d60019054906101000a900460ff16151561111757fe5b601460008573ffffffffffffffffffffffffffffffffffffffff1673ffffffffffffffffffffffffffffffffffffffff16815260200190815260200160002060020154905080601260008673ffffffffffffffffffffffffffffffffffffffff1673ffffffffffffffffffffffffffffffffffffffff1681526020019081526020016000205473__SafeMathLibExt________________________6366098d4f9091866000604051602001526040518363ffffffff167c0100000000000000000000000000000000000000000000000000000000028152600401808381526020018281526020019250505060206040518083038186803b151561121957600080fd5b6102c65a03f4151561122a57600080fd5b505050604051805190501191505092915050565b60008060009054906101000a900473ffffffffffffffffffffffffffffffffffffffff1673ffffffffffffffffffffffffffffffffffffffff163373ffffffffffffffffffffffffffffffffffffffff1614151561129b57600080fd5b600082511115156112a857fe5b6000600f60009054906101000a900460ff1660ff161415156112c657fe5b600f60019054906101000a900460ff1660ff168251111515156112e557fe5b600090505b81518160ff16101561132657611319828260ff1681518110151561130a57fe5b906020019060200201516142b6565b80806001019150506112ea565b5050565b6000600360009054906101000a900473ffffffffffffffffffffffffffffffffffffffff1673ffffffffffffffffffffffffffffffffffffffff16638e768288306000604051602001526040518263ffffffff167c0100000000000000000000000000000000000000000000000000000000028152600401808273ffffffffffffffffffffffffffffffffffffffff1673ffffffffffffffffffffffffffffffffffffffff168152602001915050602060405180830381600087803b15156113f157600080fd5b6102c65a03f1151561140257600080fd5b50505060405180519050905090565b60058054600181600116156101000203166002900480601f0160208091040260200160405190810160405280929190818152602001828054600181600116156101000203166002900480156114a75780601f1061147c576101008083540402835291602001916114a7565b820191906000526020600020905b81548152906001019060200180831161148a57829003601f168201915b505050505081565b60095481565b601360009054906101000a900460ff1681565b600080600090505b601580549050811015611561578273ffffffffffffffffffffffffffffffffffffffff1660158281548110151561150357fe5b906000526020600020900160009054906101000a900473ffffffffffffffffffffffffffffffffffffffff1673ffffffffffffffffffffffffffffffffffffffff1614156115545760019150611566565b80806001019150506114d0565b600091505b50919050565b60075481565b6000600d60009054906101000a900460ff161561159257600690506117d6565b6000600460009054906101000a900473ffffffffffffffffffffffffffffffffffffffff1673ffffffffffffffffffffffffffffffffffffffff1614156115dc57600190506117d6565b600460009054906101000a900473ffffffffffffffffffffffffffffffffffffffff1673ffffffffffffffffffffffffffffffffffffffff166382771c8e6000604051602001526040518163ffffffff167c0100000000000000000000000000000000000000000000000000000000028152600401602060405180830381600087803b151561166a57600080fd5b6102c65a03f1151561167b57600080fd5b50505060405180519050151561169457600190506117d6565b600360009054906101000a900473ffffffffffffffffffffffffffffffffffffffff1673ffffffffffffffffffffffffffffffffffffffff16638e768288306000604051602001526040518263ffffffff167c0100000000000000000000000000000000000000000000000000000000028152600401808273ffffffffffffffffffffffffffffffffffffffff1673ffffffffffffffffffffffffffffffffffffffff168152602001915050602060405180830381600087803b151561175957600080fd5b6102c65a03f1151561176a57600080fd5b50505060405180519050151561178357600190506117d6565b60085442101561179657600290506117d6565b60095442111580156117ad57506117ab61369c565b155b156117bb57600390506117d6565b6117c3612586565b156117d157600490506117d6565b600590505b90565b6000809054906101000a900473ffffffffffffffffffffffffffffffffffffffff1673ffffffffffffffffffffffffffffffffffffffff163373ffffffffffffffffffffffffffffffffffffffff1614151561183457600080fd5b600073ffffffffffffffffffffffffffffffffffffffff168173ffffffffffffffffffffffffffffffffffffffff161415151561186d57fe5b600073ffffffffffffffffffffffffffffffffffffffff16600460009054906101000a900473ffffffffffffffffffffffffffffffffffffffff1673ffffffffffffffffffffffffffffffffffffffff161415156118c757fe5b80600460006101000a81548173ffffffffffffffffffffffffffffffffffffffff021916908373ffffffffffffffffffffffffffffffffffffffff160217905550600460009054906101000a900473ffffffffffffffffffffffffffffffffffffffff1673ffffffffffffffffffffffffffffffffffffffff1663614cb9046000604051602001526040518163ffffffff167c0100000000000000000000000000000000000000000000000000000000028152600401602060405180830381600087803b151561199657600080fd5b6102c65a03f115156119a757600080fd5b5050506040518051905015156119bc57600080fd5b50565b6000601580549050905090565b60116020528060005260406000206000915090505481565b600460009054906101000a900473ffffffffffffffffffffffffffffffffffffffff1681565b6000601060008373ffffffffffffffffffffffffffffffffffffffff1673ffffffffffffffffffffffffffffffffffffffff16815260200190815260200160002060000160009054906101000a900460ff169050919050565b6000600460009054906101000a900473ffffffffffffffffffffffffffffffffffffffff1673ffffffffffffffffffffffffffffffffffffffff1663f9cb6d7a6000604051602001526040518163ffffffff167c0100000000000000000000000000000000000000000000000000000000028152600401602060405180830381600087803b1515611af357600080fd5b6102c65a03f11515611b0457600080fd5b50505060405180519050905090565b60008060009054906101000a900473ffffffffffffffffffffffffffffffffffffffff1673ffffffffffffffffffffffffffffffffffffffff163373ffffffffffffffffffffffffffffffffffffffff16141515611b7057600080fd5b600d60009054906101000a900460ff16151515611b8957fe5b601360009054906101000a900460ff161515611ba157fe5b6008544211151515611baf57fe5b611bb761339b565b90508073ffffffffffffffffffffffffffffffffffffffff1663b3f05b976000604051602001526040518163ffffffff167c0100000000000000000000000000000000000000000000000000000000028152600401602060405180830381600087803b1515611c2557600080fd5b6102c65a03f11515611c3657600080fd5b50505060405180519050151515611c4957fe5b816017819055507f7df545c7a1df0d2a1ba979e94124b026facab86a15ed46b6b4a732d995f9e1826017546040518082815260200191505060405180910390a15050565b60175481565b600b5481565b60006001905090565b6004806006811115611cb057fe5b611cb8611572565b6006811115611cc357fe5b141515611ccf57600080fd5b6000809054906101000a900473ffffffffffffffffffffffffffffffffffffffff1673ffffffffffffffffffffffffffffffffffffffff163373ffffffffffffffffffffffffffffffffffffffff16141515611d2a57600080fd5b600060149054906101000a900460ff1615611d4457600080fd5b600d60009054906101000a900460ff1615611d5e57600080fd5b600073ffffffffffffffffffffffffffffffffffffffff16600460009054906101000a900473ffffffffffffffffffffffffffffffffffffffff1673ffffffffffffffffffffffffffffffffffffffff16141515611e5057600460009054906101000a900473ffffffffffffffffffffffffffffffffffffffff1673ffffffffffffffffffffffffffffffffffffffff16630bf318a36040518163ffffffff167c0100000000000000000000000000000000000000000000000000000000028152600401600060405180830381600087803b1515611e3b57600080fd5b6102c65a03f11515611e4c57600080fd5b5050505b6001600d60006101000a81548160ff02191690831515021790555050565b6000809054906101000a900473ffffffffffffffffffffffffffffffffffffffff1673ffffffffffffffffffffffffffffffffffffffff163373ffffffffffffffffffffffffffffffffffffffff16141515611ec957600080fd5b600073ffffffffffffffffffffffffffffffffffffffff168173ffffffffffffffffffffffffffffffffffffffff1614151515611f0257fe5b600073ffffffffffffffffffffffffffffffffffffffff16600360009054906101000a900473ffffffffffffffffffffffffffffffffffffffff1673ffffffffffffffffffffffffffffffffffffffff16141515611f5c57fe5b80600360006101000a81548173ffffffffffffffffffffffffffffffffffffffff021916908373ffffffffffffffffffffffffffffffffffffffff160217905550600360009054906101000a900473ffffffffffffffffffffffffffffffffffffffff1673ffffffffffffffffffffffffffffffffffffffff166304bbc2556000604051602001526040518163ffffffff167c0100000000000000000000000000000000000000000000000000000000028152600401602060405180830381600087803b151561202b57600080fd5b6102c65a03f1151561203c57600080fd5b50505060405180519050151561205157600080fd5b50565b600a5481565b6000809054906101000a900473ffffffffffffffffffffffffffffffffffffffff1673ffffffffffffffffffffffffffffffffffffffff163373ffffffffffffffffffffffffffffffffffffffff161415156120b557600080fd5b6001600060146101000a81548160ff021916908315150217905550565b60015481565b60008060009054906101000a900473ffffffffffffffffffffffffffffffffffffffff1673ffffffffffffffffffffffffffffffffffffffff163373ffffffffffffffffffffffffffffffffffffffff1614151561213557600080fd5b600d60009054906101000a900460ff1615151561214e57fe5b601360009054906101000a900460ff16151561216657fe5b600854421115151561217457fe5b61217c61339b565b90508073ffffffffffffffffffffffffffffffffffffffff1663b3f05b976000604051602001526040518163ffffffff167c0100000000000000000000000000000000000000000000000000000000028152600401602060405180830381600087803b15156121ea57600080fd5b6102c65a03f115156121fb57600080fd5b5050506040518051905015151561220e57fe5b600360009054906101000a900473ffffffffffffffffffffffffffffffffffffffff1673ffffffffffffffffffffffffffffffffffffffff166369ea1771836040518263ffffffff167c010000000000000000000000000000000000000000000000000000000002815260040180828152602001915050600060405180830381600087803b151561229e57600080fd5b6102c65a03f115156122af57600080fd5b5050505050565b6000806000806000809054906101000a900473ffffffffffffffffffffffffffffffffffffffff1673ffffffffffffffffffffffffffffffffffffffff163373ffffffffffffffffffffffffffffffffffffffff1614151561231757600080fd5b600d60009054906101000a900460ff1615151561233057fe5b601360009054906101000a900460ff16151561234857fe5b84421115151561235457fe5b846008541115151561236257fe5b600954421115151561237057fe5b61237861339b565b93508373ffffffffffffffffffffffffffffffffffffffff1663b3f05b976000604051602001526040518163ffffffff167c0100000000000000000000000000000000000000000000000000000000028152600401602060405180830381600087803b15156123e657600080fd5b6102c65a03f115156123f757600080fd5b505050604051805190501561240b57600080fd5b612414306129c2565b92506001830191505b600f60009054906101000a900460ff1660ff168260ff16101561251957600e8260ff1681548110151561244c57fe5b906000526020600020900160009054906101000a900473ffffffffffffffffffffffffffffffffffffffff1690508073ffffffffffffffffffffffffffffffffffffffff1663af4686826000604051602001526040518163ffffffff167c0100000000000000000000000000000000000000000000000000000000028152600401602060405180830381600087803b15156124e657600080fd5b6102c65a03f115156124f757600080fd5b50505060405180519050851115151561250c57fe5b818060010192505061241d565b846009819055507fd34bb772c4ae9baa99db852f622773b31c7827e8ee818449fef20d30980bd3106009546040518082815260200191505060405180910390a15050505050565b600360009054906101000a900473ffffffffffffffffffffffffffffffffffffffff1681565b6000600754600b541015905090565b600f60019054906101000a900460ff1681565b6000809054906101000a900473ffffffffffffffffffffffffffffffffffffffff1673ffffffffffffffffffffffffffffffffffffffff163373ffffffffffffffffffffffffffffffffffffffff1614151561260357600080fd5b600d60019054906101000a900460ff16151561261e57600080fd5b600073ffffffffffffffffffffffffffffffffffffffff168473ffffffffffffffffffffffffffffffffffffffff161415151561265757fe5b60008111151561266357fe5b80821115151561266f57fe5b600954421115151561267d57fe5b612686846114c8565b151561277357601580548060010182816126a091906147a6565b9160005260206000209001600086909190916101000a81548173ffffffffffffffffffffffffffffffffffffffff021916908373ffffffffffffffffffffffffffffffffffffffff160217905550507fc03e2cbfed65ba7e1df8d32da4afaccb75208d8a6b188f67800ceb19cb9d526484848484604051808573ffffffffffffffffffffffffffffffffffffffff1673ffffffffffffffffffffffffffffffffffffffff1681526020018415151515815260200183815260200182815260200194505050505060405180910390a16127f3565b7f618943c36e69f6b3bae8b5bc48231e8911852a0c844743af41be110450a2a58f84848484604051808573ffffffffffffffffffffffffffffffffffffffff1673ffffffffffffffffffffffffffffffffffffffff1681526020018415151515815260200183815260200182815260200194505050505060405180910390a15b606060405190810160405280841515815260200183815260200182815250601460008673ffffffffffffffffffffffffffffffffffffffff1673ffffffffffffffffffffffffffffffffffffffff16815260200190815260200160002060008201518160000160006101000a81548160ff021916908315150217905550602082015181600101556040820151816002015590505050505050565b6000809054906101000a900473ffffffffffffffffffffffffffffffffffffffff1681565b600660009054906101000a900473ffffffffffffffffffffffffffffffffffffffff1681565b60126020528060005260406000206000915090505481565b600060175482119050949350505050565b61290a336110ee565b565b6000600460009054906101000a900473ffffffffffffffffffffffffffffffffffffffff1673ffffffffffffffffffffffffffffffffffffffff166382771c8e6000604051602001526040518163ffffffff167c0100000000000000000000000000000000000000000000000000000000028152600401602060405180830381600087803b151561299c57600080fd5b6102c65a03f115156129ad57600080fd5b50505060405180519050905090565b60085481565b6000601060008373ffffffffffffffffffffffffffffffffffffffff1673ffffffffffffffffffffffffffffffffffffffff16815260200190815260200160002060000160019054906101000a900460ff169050919050565b60008060009054906101000a900473ffffffffffffffffffffffffffffffffffffffff1673ffffffffffffffffffffffffffffffffffffffff163373ffffffffffffffffffffffffffffffffffffffff16141515612a7857600080fd5b600d60019054906101000a900460ff161515612a9357600080fd5b6009544211151515612aa157fe5b83518551141515612aae57fe5b82518451141515612abb57fe5b81518351141515612ac857fe5b600090505b8451811015612b4b57612b3e8582815181101515612ae757fe5b906020019060200201518583815181101515612aff57fe5b906020019060200201518584815181101515612b1757fe5b906020019060200201518585815181101515612b2f57fe5b906020019060200201516125a8565b8080600101915050612acd565b5050505050565b600d60009054906101000a900460ff1681565b600060149054906101000a900460ff1681565b600080612b8361339b565b905060046006811115612b9257fe5b8173ffffffffffffffffffffffffffffffffffffffff16631865c57d6000604051602001526040518163ffffffff167c0100000000000000000000000000000000000000000000000000000000028152600401602060405180830381600087803b1515612bfe57600080fd5b6102c65a03f11515612c0f57600080fd5b505050604051805190506006811115612c2457fe5b148015612cb557508073ffffffffffffffffffffffffffffffffffffffff1663b9b8af0b6000604051602001526040518163ffffffff167c0100000000000000000000000000000000000000000000000000000000028152600401602060405180830381600087803b1515612c9857600080fd5b6102c65a03f11515612ca957600080fd5b50505060405180519050155b8015612d4557508073ffffffffffffffffffffffffffffffffffffffff1663b3f05b976000604051602001526040518163ffffffff167c0100000000000000000000000000000000000000000000000000000000028152600401602060405180830381600087803b1515612d2857600080fd5b6102c65a03f11515612d3957600080fd5b50505060405180519050155b8015612dd557508073ffffffffffffffffffffffffffffffffffffffff166325e0671f6000604051602001526040518163ffffffff167c0100000000000000000000000000000000000000000000000000000000028152600401602060405180830381600087803b1515612db857600080fd5b6102c65a03f11515612dc957600080fd5b50505060405180519050155b15612de35760019150612de8565b600091505b5090565b600e81815481101515612dfb57fe5b90600052602060002090016000915054906101000a900473ffffffffffffffffffffffffffffffffffffffff1681565b6000806000806000809054906101000a900473ffffffffffffffffffffffffffffffffffffffff1673ffffffffffffffffffffffffffffffffffffffff163373ffffffffffffffffffffffffffffffffffffffff16141515612e8c57600080fd5b600d60009054906101000a900460ff16151515612ea557fe5b601360009054906101000a900460ff161515612ebd57fe5b844211151515612ec957fe5b6009548511151515612ed757fe5b6008544211151515612ee557fe5b612eed61339b565b93508373ffffffffffffffffffffffffffffffffffffffff1663b3f05b976000604051602001526040518163ffffffff167c0100000000000000000000000000000000000000000000000000000000028152600401602060405180830381600087803b1515612f5b57600080fd5b6102c65a03f11515612f6c57600080fd5b5050506040518051905015612f8057600080fd5b612f89306129c2565b9250600091505b8260ff168260ff16101561307d57600e8260ff16815481101515612fb057fe5b906000526020600020900160009054906101000a900473ffffffffffffffffffffffffffffffffffffffff1690508073ffffffffffffffffffffffffffffffffffffffff16630a09284a6000604051602001526040518163ffffffff167c0100000000000000000000000000000000000000000000000000000000028152600401602060405180830381600087803b151561304a57600080fd5b6102c65a03f1151561305b57600080fd5b50505060405180519050851015151561307057fe5b8180600101925050612f90565b846008819055507fa3f2a813a039e5195c620dabcd490267a9aa5a50e4e1383bc474e9b800f7defe6008546040518082815260200191505060405180910390a15050505050565b6000600d60019054906101000a900460ff1615156130e157600080fd5b600073ffffffffffffffffffffffffffffffffffffffff168373ffffffffffffffffffffffffffffffffffffffff161415151561311a57fe5b600954421115151561312857fe5b61313133611a0a565b151561313957fe5b601460008473ffffffffffffffffffffffffffffffffffffffff1673ffffffffffffffffffffffffffffffffffffffff16815260200190815260200160002060010154821080156131c957506000601260008573ffffffffffffffffffffffffffffffffffffffff1673ffffffffffffffffffffffffffffffffffffffff16815260200190815260200160002054145b156131d357600080fd5b601460008473ffffffffffffffffffffffffffffffffffffffff1673ffffffffffffffffffffffffffffffffffffffff1681526020019081526020016000206002015490508073__SafeMathLibExt________________________63f4f3bdc19091846000604051602001526040518363ffffffff167c0100000000000000000000000000000000000000000000000000000000028152600401808381526020018281526020019250505060206040518083038186803b151561329557600080fd5b6102c65a03f415156132a657600080fd5b505050604051805190509050606060405190810160405280601460008673ffffffffffffffffffffffffffffffffffffffff1673ffffffffffffffffffffffffffffffffffffffff16815260200190815260200160002060000160009054906101000a900460ff16151581526020016000815260200182815250601460008573ffffffffffffffffffffffffffffffffffffffff1673ffffffffffffffffffffffffffffffffffffffff16815260200190815260200160002060008201518160000160006101000a81548160ff0219169083151502179055506020820151816001015560408201518160020155905050505050565b600080600f60009054906101000a900460ff1660ff16111561340e57600e6001600f60009054906101000a900460ff160360ff168154811015156133db57fe5b906000526020600020900160009054906101000a900473ffffffffffffffffffffffffffffffffffffffff169050613413565b600090505b90565b60146020528060005260406000206000915090508060000160009054906101000a900460ff16908060010154908060020154905083565b6000809054906101000a900473ffffffffffffffffffffffffffffffffffffffff1673ffffffffffffffffffffffffffffffffffffffff163373ffffffffffffffffffffffffffffffffffffffff161415156134a857600080fd5b600060149054906101000a900460ff1615156134c357600080fd5b60008060146101000a81548160ff021916908315150217905550565b60048060068111156134ed57fe5b6134f5611572565b600681111561350057fe5b14151561350c57600080fd5b6000809054906101000a900473ffffffffffffffffffffffffffffffffffffffff1673ffffffffffffffffffffffffffffffffffffffff163373ffffffffffffffffffffffffffffffffffffffff1614151561356757600080fd5b600060149054906101000a900460ff161561358157600080fd5b600d60009054906101000a900460ff161561359b57600080fd5b600073ffffffffffffffffffffffffffffffffffffffff16600460009054906101000a900473ffffffffffffffffffffffffffffffffffffffff1673ffffffffffffffffffffffffffffffffffffffff1614151561369857600460009054906101000a900473ffffffffffffffffffffffffffffffffffffffff1673ffffffffffffffffffffffffffffffffffffffff1663cddaf241836040518263ffffffff167c010000000000000000000000000000000000000000000000000000000002815260040180828152602001915050600060405180830381600087803b151561368357600080fd5b6102c65a03f1151561369457600080fd5b5050505b5050565b6000601754600a541015905090565b600c5481565b6015818154811015156136c057fe5b90600052602060002090016000915054906101000a900473ffffffffffffffffffffffffffffffffffffffff1681565b600f60009054906101000a900460ff1681565b600d60019054906101000a900460ff1681565b6000809054906101000a900473ffffffffffffffffffffffffffffffffffffffff1673ffffffffffffffffffffffffffffffffffffffff163373ffffffffffffffffffffffffffffffffffffffff1614151561377157600080fd5b600073ffffffffffffffffffffffffffffffffffffffff168173ffffffffffffffffffffffffffffffffffffffff16141515156137ad57600080fd5b8073ffffffffffffffffffffffffffffffffffffffff166000809054906101000a900473ffffffffffffffffffffffffffffffffffffffff1673ffffffffffffffffffffffffffffffffffffffff167f8be0079c531659141344cd1fd0a4f28419497f9722a3daafe3b4186f6b6457e060405160405180910390a3806000806101000a81548173ffffffffffffffffffffffffffffffffffffffff021916908373ffffffffffffffffffffffffffffffffffffffff16021790555050565b6000809054906101000a900473ffffffffffffffffffffffffffffffffffffffff1673ffffffffffffffffffffffffffffffffffffffff163373ffffffffffffffffffffffffffffffffffffffff161415156138c657600080fd5b600154600c5411156138d757600080fd5b80600660006101000a81548173ffffffffffffffffffffffffffffffffffffffff021916908373ffffffffffffffffffffffffffffffffffffffff16021790555050565b600260009054906101000a900473ffffffffffffffffffffffffffffffffffffffff1681565b600080600060149054906101000a900460ff161561395e57600080fd5b6002600681111561396b57fe5b613973611572565b600681111561397e57fe5b141561398957600080fd5b6003600681111561399657fe5b61399e611572565b60068111156139a957fe5b1415613a2557600d60019054906101000a900460ff1615613a2057601460008573ffffffffffffffffffffffffffffffffffffffff1673ffffffffffffffffffffffffffffffffffffffff16815260200190815260200160002060000160009054906101000a900460ff161515613a1f57600080fd5b5b613a2a565b600080fd5b349150600360009054906101000a900473ffffffffffffffffffffffffffffffffffffffff1673ffffffffffffffffffffffffffffffffffffffff166318a4155e83600b54600a5433600260009054906101000a900473ffffffffffffffffffffffffffffffffffffffff1673ffffffffffffffffffffffffffffffffffffffff1663313ce5676000604051602001526040518163ffffffff167c0100000000000000000000000000000000000000000000000000000000028152600401602060405180830381600087803b1515613b0157600080fd5b6102c65a03f11515613b1257600080fd5b505050604051805190506000604051602001526040518663ffffffff167c0100000000000000000000000000000000000000000000000000000000028152600401808681526020018581526020018481526020018373ffffffffffffffffffffffffffffffffffffffff1673ffffffffffffffffffffffffffffffffffffffff16815260200182815260200195505050505050602060405180830381600087803b1515613bbe57600080fd5b6102c65a03f11515613bcf57600080fd5b5050506040518051905090506000811415613be957600080fd5b600d60019054906101000a900460ff1615613cbb57601460008573ffffffffffffffffffffffffffffffffffffffff1673ffffffffffffffffffffffffffffffffffffffff1681526020019081526020016000206001015481108015613c8e57506000601260008673ffffffffffffffffffffffffffffffffffffffff1673ffffffffffffffffffffffffffffffffffffffff16815260200190815260200160002054145b15613c9857600080fd5b613ca284826110fc565b15613cac57600080fd5b613cb684826144d1565b613dbc565b600260009054906101000a900473ffffffffffffffffffffffffffffffffffffffff1673ffffffffffffffffffffffffffffffffffffffff16633fa615b06000604051602001526040518163ffffffff167c0100000000000000000000000000000000000000000000000000000000028152600401602060405180830381600087803b1515613d4957600080fd5b6102c65a03f11515613d5a57600080fd5b5050506040518051905081108015613db157506000601260008673ffffffffffffffffffffffffffffffffffffffff1673ffffffffffffffffffffffffffffffffffffffff16815260200190815260200160002054145b15613dbb57600080fd5b5b6000601160008673ffffffffffffffffffffffffffffffffffffffff1673ffffffffffffffffffffffffffffffffffffffff168152602001908152602001600020541415613e1757600c600081548092919060010191905055505b601160008573ffffffffffffffffffffffffffffffffffffffff1673ffffffffffffffffffffffffffffffffffffffff1681526020019081526020016000205473__SafeMathLibExt________________________6366098d4f9091846000604051602001526040518363ffffffff167c0100000000000000000000000000000000000000000000000000000000028152600401808381526020018281526020019250505060206040518083038186803b1515613ed357600080fd5b6102c65a03f41515613ee457600080fd5b50505060405180519050601160008673ffffffffffffffffffffffffffffffffffffffff1673ffffffffffffffffffffffffffffffffffffffff16815260200190815260200160002081905550601260008573ffffffffffffffffffffffffffffffffffffffff1673ffffffffffffffffffffffffffffffffffffffff1681526020019081526020016000205473__SafeMathLibExt________________________6366098d4f9091836000604051602001526040518363ffffffff167c0100000000000000000000000000000000000000000000000000000000028152600401808381526020018281526020019250505060206040518083038186803b1515613fed57600080fd5b6102c65a03f41515613ffe57600080fd5b50505060405180519050601260008673ffffffffffffffffffffffffffffffffffffffff1673ffffffffffffffffffffffffffffffffffffffff16815260200190815260200160002081905550600b5473__SafeMathLibExt________________________6366098d4f9091846000604051602001526040518363ffffffff167c0100000000000000000000000000000000000000000000000000000000028152600401808381526020018281526020019250505060206040518083038186803b15156140ca57600080fd5b6102c65a03f415156140db57600080fd5b50505060405180519050600b81905550600a5473__SafeMathLibExt________________________6366098d4f9091836000604051602001526040518363ffffffff167c0100000000000000000000000000000000000000000000000000000000028152600401808381526020018281526020019250505060206040518083038186803b151561416a57600080fd5b6102c65a03f4151561417b57600080fd5b50505060405180519050600a8190555061419b8282600b54600a546128f0565b156141a557600080fd5b6141af84826146c4565b600660009054906101000a900473ffffffffffffffffffffffffffffffffffffffff1673ffffffffffffffffffffffffffffffffffffffff166108fc839081150290604051600060405180830381858888f19350505050151561421157600080fd5b7f0396f60aaad038749091d273dc13aaabc63db6e2271c7bad442d5cf25cc4335084838386604051808573ffffffffffffffffffffffffffffffffffffffff1673ffffffffffffffffffffffffffffffffffffffff168152602001848152602001838152602001826fffffffffffffffffffffffffffffffff166fffffffffffffffffffffffffffffffff16815260200194505050505060405180910390a150505050565b6000809054906101000a900473ffffffffffffffffffffffffffffffffffffffff1673ffffffffffffffffffffffffffffffffffffffff163373ffffffffffffffffffffffffffffffffffffffff1614151561431157600080fd5b600073ffffffffffffffffffffffffffffffffffffffff168173ffffffffffffffffffffffffffffffffffffffff161415151561434a57fe5b600f60019054906101000a900460ff1660ff16600f60009054906101000a900460ff1660ff161115151561437a57fe5b61438381611a0a565b15151561438c57fe5b600e80548060010182816143a091906147a6565b9160005260206000209001600083909190916101000a81548173ffffffffffffffffffffffffffffffffffffffff021916908373ffffffffffffffffffffffffffffffffffffffff160217905550506040805190810160405280600115158152602001600f60009054906101000a900460ff1660ff16815250601060008373ffffffffffffffffffffffffffffffffffffffff1673ffffffffffffffffffffffffffffffffffffffff16815260200190815260200160002060008201518160000160006101000a81548160ff02191690831515021790555060208201518160000160016101000a81548160ff021916908360ff160217905550905050600f600081819054906101000a900460ff168092919060010191906101000a81548160ff021916908360ff1602179055505050565b6000806000600d60019054906101000a900460ff1615156144f157600080fd5b601460008673ffffffffffffffffffffffffffffffffffffffff1673ffffffffffffffffffffffffffffffffffffffff168152602001908152602001600020600101548410801561458157506000601260008773ffffffffffffffffffffffffffffffffffffffff1673ffffffffffffffffffffffffffffffffffffffff16815260200190815260200160002054145b1561458b57600080fd5b614594306129c2565b92506001830191505b600f60009054906101000a900460ff1660ff168260ff1610156146bd57600e8260ff168154811015156145cc57fe5b906000526020600020900160009054906101000a900473ffffffffffffffffffffffffffffffffffffffff1690508073ffffffffffffffffffffffffffffffffffffffff1663c12eb19186866040518363ffffffff167c0100000000000000000000000000000000000000000000000000000000028152600401808373ffffffffffffffffffffffffffffffffffffffff1673ffffffffffffffffffffffffffffffffffffffff16815260200182815260200192505050600060405180830381600087803b151561469c57600080fd5b6102c65a03f115156146ad57600080fd5b505050818060010192505061459d565b5050505050565b6000600260009054906101000a900473ffffffffffffffffffffffffffffffffffffffff1690508073ffffffffffffffffffffffffffffffffffffffff166340c10f1984846040518363ffffffff167c0100000000000000000000000000000000000000000000000000000000028152600401808373ffffffffffffffffffffffffffffffffffffffff1673ffffffffffffffffffffffffffffffffffffffff16815260200182815260200192505050600060405180830381600087803b151561478d57600080fd5b6102c65a03f1151561479e57600080fd5b505050505050565b8154818355818115116147cd578183600052602060002091820191016147cc91906147d2565b5b505050565b6147f491905b808211156147f05760008160009055506001016147d8565b5090565b905600a165627a7a72305820c31a486da63416fa2cfc4f77d06dbd281b4ea18d98b3e9c80eb5d155ecae83e80029",
  "source": "pragma solidity ^0.4.18;\n\nimport \"./CrowdsaleExt.sol\";\nimport \"./MintableTokenExt.sol\";\n\n/**\n * ICO crowdsale contract that is capped by amout of tokens.\n *\n * - Tokens are dynamically created during the crowdsale\n *\n *\n */\ncontract MintedTokenCappedCrowdsaleExt is CrowdsaleExt {\n\n  /* Maximum amount of tokens this crowdsale can sell. */\n  uint public maximumSellableTokens;\n\n  function MintedTokenCappedCrowdsaleExt(\n    string _name, \n    address _token, \n    PricingStrategy _pricingStrategy, \n    address _multisigWallet, \n    uint _start, uint _end, \n    uint _minimumFundingGoal, \n    uint _maximumSellableTokens, \n    bool _isUpdatable, \n    bool _isWhiteListed\n  ) CrowdsaleExt(_name, _token, _pricingStrategy, _multisigWallet, _start, _end, _minimumFundingGoal, _isUpdatable, _isWhiteListed) {\n    maximumSellableTokens = _maximumSellableTokens;\n  }\n\n  // Crowdsale maximumSellableTokens has been changed\n  event MaximumSellableTokensChanged(uint newMaximumSellableTokens);\n\n  /**\n   * Called from invest() to confirm if the curret investment does not break our cap rule.\n   */\n  function isBreakingCap(uint weiAmount, uint tokenAmount, uint weiRaisedTotal, uint tokensSoldTotal) public constant returns (bool limitBroken) {\n    return tokensSoldTotal > maximumSellableTokens;\n  }\n\n  function isBreakingInvestorCap(address addr, uint tokenAmount) public constant returns (bool limitBroken) {\n    assert(isWhiteListed);\n    uint maxCap = earlyParticipantWhitelist[addr].maxCap;\n    return (tokenAmountOf[addr].plus(tokenAmount)) > maxCap;\n  }\n\n  function isCrowdsaleFull() public constant returns (bool) {\n    return tokensSold >= maximumSellableTokens;\n  }\n\n  function setMaximumSellableTokens(uint tokens) public onlyOwner {\n    assert(!finalized);\n    assert(isUpdatable);\n    assert(now <= startsAt);\n\n    CrowdsaleExt lastTierCntrct = CrowdsaleExt(getLastTier());\n    assert(!lastTierCntrct.finalized());\n\n    maximumSellableTokens = tokens;\n    MaximumSellableTokensChanged(maximumSellableTokens);\n  }\n\n  function updateRate(uint newOneTokenInWei) public onlyOwner {\n    assert(!finalized);\n    assert(isUpdatable);\n    assert(now <= startsAt);\n\n    CrowdsaleExt lastTierCntrct = CrowdsaleExt(getLastTier());\n    assert(!lastTierCntrct.finalized());\n\n    pricingStrategy.updateRate(newOneTokenInWei);\n  }\n\n  /**\n   * Dynamically create tokens and assign them to the investor.\n   */\n  function assignTokens(address receiver, uint tokenAmount) private {\n    MintableTokenExt mintableToken = MintableTokenExt(token);\n    mintableToken.mint(receiver, tokenAmount);\n  }\n}\n",
  "sourcePath": "/Users/kevinjohnson/Documents/GitHub/plaza-crowdsale/contracts/MintedTokenCappedCrowdsaleExt.sol",
  "compiler": {
    "name": "solc",
    "version": "0.4.18+commit.9cf6e910.Emscripten.clang"
  },
  "schemaVersion": "1.0.1",
  "updatedAt": "2018-05-05T15:39:18.313Z"
}