{
  "contractName": "MintableTokenExt",
  "abi": [
    {
      "constant": true,
      "inputs": [],
      "name": "mintingFinished",
      "outputs": [
        {
          "name": "",
          "type": "bool"
        }
      ],
      "payable": false,
      "stateMutability": "view",
      "type": "function"
    },
    {
      "constant": false,
      "inputs": [
        {
          "name": "_spender",
          "type": "address"
        },
        {
          "name": "_value",
          "type": "uint256"
        }
      ],
      "name": "approve",
      "outputs": [
        {
          "name": "success",
          "type": "bool"
        }
      ],
      "payable": false,
      "stateMutability": "nonpayable",
      "type": "function"
    },
    {
      "constant": true,
      "inputs": [],
      "name": "totalSupply",
      "outputs": [
        {
          "name": "",
          "type": "uint256"
        }
      ],
      "payable": false,
      "stateMutability": "view",
      "type": "function"
    },
    {
      "constant": false,
      "inputs": [
        {
          "name": "_from",
          "type": "address"
        },
        {
          "name": "_to",
          "type": "address"
        },
        {
          "name": "_value",
          "type": "uint256"
        }
      ],
      "name": "transferFrom",
      "outputs": [
        {
          "name": "success",
          "type": "bool"
        }
      ],
      "payable": false,
      "stateMutability": "nonpayable",
      "type": "function"
    },
    {
      "constant": true,
      "inputs": [
        {
          "name": "",
          "type": "address"
        }
      ],
      "name": "mintAgents",
      "outputs": [
        {
          "name": "",
          "type": "bool"
        }
      ],
      "payable": false,
      "stateMutability": "view",
      "type": "function"
    },
    {
      "constant": true,
      "inputs": [
        {
          "name": "",
          "type": "address"
        }
      ],
      "name": "reservedTokensList",
      "outputs": [
        {
          "name": "inTokens",
          "type": "uint256"
        },
        {
          "name": "inPercentageUnit",
          "type": "uint256"
        },
        {
          "name": "inPercentageDecimals",
          "type": "uint256"
        },
        {
          "name": "isReserved",
          "type": "bool"
        },
        {
          "name": "isDistributed",
          "type": "bool"
        }
      ],
      "payable": false,
      "stateMutability": "view",
      "type": "function"
    },
    {
      "constant": true,
      "inputs": [
        {
          "name": "_owner",
          "type": "address"
        }
      ],
      "name": "balanceOf",
      "outputs": [
        {
          "name": "balance",
          "type": "uint256"
        }
      ],
      "payable": false,
      "stateMutability": "view",
      "type": "function"
    },
    {
      "constant": true,
      "inputs": [
        {
          "name": "",
          "type": "uint256"
        }
      ],
      "name": "reservedTokensDestinations",
      "outputs": [
        {
          "name": "",
          "type": "address"
        }
      ],
      "payable": false,
      "stateMutability": "view",
      "type": "function"
    },
    {
      "constant": true,
      "inputs": [],
      "name": "owner",
      "outputs": [
        {
          "name": "",
          "type": "address"
        }
      ],
      "payable": false,
      "stateMutability": "view",
      "type": "function"
    },
    {
      "constant": false,
      "inputs": [
        {
          "name": "_to",
          "type": "address"
        },
        {
          "name": "_value",
          "type": "uint256"
        }
      ],
      "name": "transfer",
      "outputs": [
        {
          "name": "success",
          "type": "bool"
        }
      ],
      "payable": false,
      "stateMutability": "nonpayable",
      "type": "function"
    },
    {
      "constant": true,
      "inputs": [],
      "name": "reservedTokensDestinationsLen",
      "outputs": [
        {
          "name": "",
          "type": "uint256"
        }
      ],
      "payable": false,
      "stateMutability": "view",
      "type": "function"
    },
    {
      "constant": true,
      "inputs": [
        {
          "name": "_owner",
          "type": "address"
        },
        {
          "name": "_spender",
          "type": "address"
        }
      ],
      "name": "allowance",
      "outputs": [
        {
          "name": "remaining",
          "type": "uint256"
        }
      ],
      "payable": false,
      "stateMutability": "view",
      "type": "function"
    },
    {
      "constant": true,
      "inputs": [],
      "name": "isToken",
      "outputs": [
        {
          "name": "weAre",
          "type": "bool"
        }
      ],
      "payable": false,
      "stateMutability": "view",
      "type": "function"
    },
    {
      "constant": false,
      "inputs": [
        {
          "name": "newOwner",
          "type": "address"
        }
      ],
      "name": "transferOwnership",
      "outputs": [],
      "payable": false,
      "stateMutability": "nonpayable",
      "type": "function"
    },
    {
      "anonymous": false,
      "inputs": [
        {
          "indexed": false,
          "name": "addr",
          "type": "address"
        },
        {
          "indexed": false,
          "name": "state",
          "type": "bool"
        }
      ],
      "name": "MintingAgentChanged",
      "type": "event"
    },
    {
      "anonymous": false,
      "inputs": [
        {
          "indexed": true,
          "name": "previousOwner",
          "type": "address"
        },
        {
          "indexed": true,
          "name": "newOwner",
          "type": "address"
        }
      ],
      "name": "OwnershipTransferred",
      "type": "event"
    },
    {
      "anonymous": false,
      "inputs": [
        {
          "indexed": false,
          "name": "receiver",
          "type": "address"
        },
        {
          "indexed": false,
          "name": "amount",
          "type": "uint256"
        }
      ],
      "name": "Minted",
      "type": "event"
    },
    {
      "anonymous": false,
      "inputs": [
        {
          "indexed": true,
          "name": "owner",
          "type": "address"
        },
        {
          "indexed": true,
          "name": "spender",
          "type": "address"
        },
        {
          "indexed": false,
          "name": "value",
          "type": "uint256"
        }
      ],
      "name": "Approval",
      "type": "event"
    },
    {
      "anonymous": false,
      "inputs": [
        {
          "indexed": true,
          "name": "from",
          "type": "address"
        },
        {
          "indexed": true,
          "name": "to",
          "type": "address"
        },
        {
          "indexed": false,
          "name": "value",
          "type": "uint256"
        }
      ],
      "name": "Transfer",
      "type": "event"
    },
    {
      "constant": false,
      "inputs": [
        {
          "name": "addr",
          "type": "address"
        }
      ],
      "name": "finalizeReservedAddress",
      "outputs": [],
      "payable": false,
      "stateMutability": "nonpayable",
      "type": "function"
    },
    {
      "constant": true,
      "inputs": [
        {
          "name": "addr",
          "type": "address"
        }
      ],
      "name": "isAddressReserved",
      "outputs": [
        {
          "name": "isReserved",
          "type": "bool"
        }
      ],
      "payable": false,
      "stateMutability": "view",
      "type": "function"
    },
    {
      "constant": true,
      "inputs": [
        {
          "name": "addr",
          "type": "address"
        }
      ],
      "name": "areTokensDistributedForAddress",
      "outputs": [
        {
          "name": "isDistributed",
          "type": "bool"
        }
      ],
      "payable": false,
      "stateMutability": "view",
      "type": "function"
    },
    {
      "constant": true,
      "inputs": [
        {
          "name": "addr",
          "type": "address"
        }
      ],
      "name": "getReservedTokens",
      "outputs": [
        {
          "name": "inTokens",
          "type": "uint256"
        }
      ],
      "payable": false,
      "stateMutability": "view",
      "type": "function"
    },
    {
      "constant": true,
      "inputs": [
        {
          "name": "addr",
          "type": "address"
        }
      ],
      "name": "getReservedPercentageUnit",
      "outputs": [
        {
          "name": "inPercentageUnit",
          "type": "uint256"
        }
      ],
      "payable": false,
      "stateMutability": "view",
      "type": "function"
    },
    {
      "constant": true,
      "inputs": [
        {
          "name": "addr",
          "type": "address"
        }
      ],
      "name": "getReservedPercentageDecimals",
      "outputs": [
        {
          "name": "inPercentageDecimals",
          "type": "uint256"
        }
      ],
      "payable": false,
      "stateMutability": "view",
      "type": "function"
    },
    {
      "constant": false,
      "inputs": [
        {
          "name": "addrs",
          "type": "address[]"
        },
        {
          "name": "inTokens",
          "type": "uint256[]"
        },
        {
          "name": "inPercentageUnit",
          "type": "uint256[]"
        },
        {
          "name": "inPercentageDecimals",
          "type": "uint256[]"
        }
      ],
      "name": "setReservedTokensListMultiple",
      "outputs": [],
      "payable": false,
      "stateMutability": "nonpayable",
      "type": "function"
    },
    {
      "constant": false,
      "inputs": [
        {
          "name": "receiver",
          "type": "address"
        },
        {
          "name": "amount",
          "type": "uint256"
        }
      ],
      "name": "mint",
      "outputs": [],
      "payable": false,
      "stateMutability": "nonpayable",
      "type": "function"
    },
    {
      "constant": false,
      "inputs": [
        {
          "name": "addr",
          "type": "address"
        },
        {
          "name": "state",
          "type": "bool"
        }
      ],
      "name": "setMintAgent",
      "outputs": [],
      "payable": false,
      "stateMutability": "nonpayable",
      "type": "function"
    }
  ],
  "bytecode": "0x60606040526000600360146101000a81548160ff02191690831515021790555060006007556000600860006101000a81548160ff02191690831515021790555033600360006101000a81548173ffffffffffffffffffffffffffffffffffffffff021916908373ffffffffffffffffffffffffffffffffffffffff160217905550611c3a8061008f6000396000f300606060405260043610610133576000357c0100000000000000000000000000000000000000000000000000000000900463ffffffff16806305d2035b14610138578063095ea7b31461016557806318160ddd146101bf57806323b872dd146101e85780633d0acdaa1461026157806340c10f19146102ae57806342c1867b146102f0578063432146751461034157806345e7e1401461038557806351ed17a4146103d2578063612544b3146104435780636ffc22b81461049057806370a08231146104c95780637386f0a7146105165780638da5cb5b1461057957806395fe6f1d146105ce578063a9059cbb1461061f578063b4ecb84714610679578063c3310517146106ca578063dd62ed3e146106f3578063eefa597b1461075f578063f05834d61461078c578063f2fde38b146108a6575b600080fd5b341561014357600080fd5b61014b6108df565b604051808215151515815260200191505060405180910390f35b341561017057600080fd5b6101a5600480803573ffffffffffffffffffffffffffffffffffffffff169060200190919080359060200190919050506108f2565b604051808215151515815260200191505060405180910390f35b34156101ca57600080fd5b6101d2610a79565b6040518082815260200191505060405180910390f35b34156101f357600080fd5b610247600480803573ffffffffffffffffffffffffffffffffffffffff1690602001909190803573ffffffffffffffffffffffffffffffffffffffff16906020019091908035906020019091905050610a7f565b604051808215151515815260200191505060405180910390f35b341561026c57600080fd5b610298600480803573ffffffffffffffffffffffffffffffffffffffff16906020019091905050610d14565b6040518082815260200191505060405180910390f35b34156102b957600080fd5b6102ee600480803573ffffffffffffffffffffffffffffffffffffffff16906020019091908035906020019091905050610d60565b005b34156102fb57600080fd5b610327600480803573ffffffffffffffffffffffffffffffffffffffff16906020019091905050610fdc565b604051808215151515815260200191505060405180910390f35b341561034c57600080fd5b610383600480803573ffffffffffffffffffffffffffffffffffffffff169060200190919080351515906020019091905050610ffc565b005b341561039057600080fd5b6103bc600480803573ffffffffffffffffffffffffffffffffffffffff1690602001909190505061113a565b6040518082815260200191505060405180910390f35b34156103dd57600080fd5b610409600480803573ffffffffffffffffffffffffffffffffffffffff16906020019091905050611186565b6040518086815260200185815260200184815260200183151515158152602001821515151581526020019550505050505060405180910390f35b341561044e57600080fd5b61047a600480803573ffffffffffffffffffffffffffffffffffffffff169060200190919050506111d6565b6040518082815260200191505060405180910390f35b341561049b57600080fd5b6104c7600480803573ffffffffffffffffffffffffffffffffffffffff16906020019091905050611222565b005b34156104d457600080fd5b610500600480803573ffffffffffffffffffffffffffffffffffffffff169060200190919050506112f4565b6040518082815260200191505060405180910390f35b341561052157600080fd5b610537600480803590602001909190505061133d565b604051808273ffffffffffffffffffffffffffffffffffffffff1673ffffffffffffffffffffffffffffffffffffffff16815260200191505060405180910390f35b341561058457600080fd5b61058c61137c565b604051808273ffffffffffffffffffffffffffffffffffffffff1673ffffffffffffffffffffffffffffffffffffffff16815260200191505060405180910390f35b34156105d957600080fd5b610605600480803573ffffffffffffffffffffffffffffffffffffffff169060200190919050506113a2565b604051808215151515815260200191505060405180910390f35b341561062a57600080fd5b61065f600480803573ffffffffffffffffffffffffffffffffffffffff169060200190919080359060200190919050506113fb565b604051808215151515815260200191505060405180910390f35b341561068457600080fd5b6106b0600480803573ffffffffffffffffffffffffffffffffffffffff16906020019091905050611584565b604051808215151515815260200191505060405180910390f35b34156106d557600080fd5b6106dd6115dd565b6040518082815260200191505060405180910390f35b34156106fe57600080fd5b610749600480803573ffffffffffffffffffffffffffffffffffffffff1690602001909190803573ffffffffffffffffffffffffffffffffffffffff169060200190919050506115e3565b6040518082815260200191505060405180910390f35b341561076a57600080fd5b61077261166a565b604051808215151515815260200191505060405180910390f35b341561079757600080fd5b6108a4600480803590602001908201803590602001908080602002602001604051908101604052809392919081815260200183836020028082843782019150505050505091908035906020019082018035906020019080806020026020016040519081016040528093929190818152602001838360200280828437820191505050505050919080359060200190820180359060200190808060200260200160405190810160405280939291908181526020018383602002808284378201915050505050509190803590602001908201803590602001908080602002602001604051908101604052809392919081815260200183836020028082843782019150505050505091905050611673565b005b34156108b157600080fd5b6108dd600480803573ffffffffffffffffffffffffffffffffffffffff1690602001909190505061181c565b005b600360149054906101000a900460ff1681565b600080821415801561098157506000600260003373ffffffffffffffffffffffffffffffffffffffff1673ffffffffffffffffffffffffffffffffffffffff16815260200190815260200160002060008573ffffffffffffffffffffffffffffffffffffffff1673ffffffffffffffffffffffffffffffffffffffff1681526020019081526020016000205414155b151561098957fe5b81600260003373ffffffffffffffffffffffffffffffffffffffff1673ffffffffffffffffffffffffffffffffffffffff16815260200190815260200160002060008573ffffffffffffffffffffffffffffffffffffffff1673ffffffffffffffffffffffffffffffffffffffff168152602001908152602001600020819055508273ffffffffffffffffffffffffffffffffffffffff163373ffffffffffffffffffffffffffffffffffffffff167f8c5be1e5ebec7d5bd14f71427d1e84f3dd0314c0f7b2291e5b200ac8c7c3b925846040518082815260200191505060405180910390a36001905092915050565b60005481565b600080600260008673ffffffffffffffffffffffffffffffffffffffff1673ffffffffffffffffffffffffffffffffffffffff16815260200190815260200160002060003373ffffffffffffffffffffffffffffffffffffffff1673ffffffffffffffffffffffffffffffffffffffff168152602001908152602001600020549050610b4a600160008673ffffffffffffffffffffffffffffffffffffffff1673ffffffffffffffffffffffffffffffffffffffff1681526020019081526020016000205484611974565b600160008673ffffffffffffffffffffffffffffffffffffffff1673ffffffffffffffffffffffffffffffffffffffff16815260200190815260200160002081905550610bd6600160008773ffffffffffffffffffffffffffffffffffffffff1673ffffffffffffffffffffffffffffffffffffffff168152602001908152602001600020548461199e565b600160008773ffffffffffffffffffffffffffffffffffffffff1673ffffffffffffffffffffffffffffffffffffffff16815260200190815260200160002081905550610c23818461199e565b600260008773ffffffffffffffffffffffffffffffffffffffff1673ffffffffffffffffffffffffffffffffffffffff16815260200190815260200160002060003373ffffffffffffffffffffffffffffffffffffffff1673ffffffffffffffffffffffffffffffffffffffff168152602001908152602001600020819055508373ffffffffffffffffffffffffffffffffffffffff168573ffffffffffffffffffffffffffffffffffffffff167fddf252ad1be2c89b69c2b068fc378daa952ba7f163c4a11628f55a4df523b3ef856040518082815260200191505060405180910390a360019150509392505050565b6000600560008373ffffffffffffffffffffffffffffffffffffffff1673ffffffffffffffffffffffffffffffffffffffff168152602001908152602001600020600101549050919050565b600460003373ffffffffffffffffffffffffffffffffffffffff1673ffffffffffffffffffffffffffffffffffffffff16815260200190815260200160002060009054906101000a900460ff16151515610db657fe5b600360149054906101000a900460ff161515610dce57fe5b60005473__SafeMathLibExt________________________6366098d4f9091836000604051602001526040518363ffffffff167c0100000000000000000000000000000000000000000000000000000000028152600401808381526020018281526020019250505060206040518083038186803b1515610e4d57600080fd5b6102c65a03f41515610e5e57600080fd5b50505060405180519050600081905550600160008373ffffffffffffffffffffffffffffffffffffffff1673ffffffffffffffffffffffffffffffffffffffff1681526020019081526020016000205473__SafeMathLibExt________________________6366098d4f9091836000604051602001526040518363ffffffff167c0100000000000000000000000000000000000000000000000000000000028152600401808381526020018281526020019250505060206040518083038186803b1515610f2a57600080fd5b6102c65a03f41515610f3b57600080fd5b50505060405180519050600160008473ffffffffffffffffffffffffffffffffffffffff1673ffffffffffffffffffffffffffffffffffffffff168152602001908152602001600020819055508173ffffffffffffffffffffffffffffffffffffffff1660007fddf252ad1be2c89b69c2b068fc378daa952ba7f163c4a11628f55a4df523b3ef836040518082815260200191505060405180910390a35050565b60046020528060005260406000206000915054906101000a900460ff1681565b600360009054906101000a900473ffffffffffffffffffffffffffffffffffffffff1673ffffffffffffffffffffffffffffffffffffffff163373ffffffffffffffffffffffffffffffffffffffff1614151561105857600080fd5b600360149054906101000a900460ff16151561107057fe5b80600460008473ffffffffffffffffffffffffffffffffffffffff1673ffffffffffffffffffffffffffffffffffffffff16815260200190815260200160002060006101000a81548160ff0219169083151502179055507f4b0adf6c802794c7dde28a08a4e07131abcff3bf9603cd71f14f90bec7865efa8282604051808373ffffffffffffffffffffffffffffffffffffffff1673ffffffffffffffffffffffffffffffffffffffff168152602001821515151581526020019250505060405180910390a15050565b6000600560008373ffffffffffffffffffffffffffffffffffffffff1673ffffffffffffffffffffffffffffffffffffffff168152602001908152602001600020600201549050919050565b60056020528060005260406000206000915090508060000154908060010154908060020154908060030160009054906101000a900460ff16908060030160019054906101000a900460ff16905085565b6000600560008373ffffffffffffffffffffffffffffffffffffffff1673ffffffffffffffffffffffffffffffffffffffff168152602001908152602001600020600001549050919050565b6000600460003373ffffffffffffffffffffffffffffffffffffffff1673ffffffffffffffffffffffffffffffffffffffff16815260200190815260200160002060009054906101000a900460ff1615151561127a57fe5b600360149054906101000a900460ff16151561129257fe5b600560008373ffffffffffffffffffffffffffffffffffffffff1673ffffffffffffffffffffffffffffffffffffffff168152602001908152602001600020905060018160030160016101000a81548160ff0219169083151502179055505050565b6000600160008373ffffffffffffffffffffffffffffffffffffffff1673ffffffffffffffffffffffffffffffffffffffff168152602001908152602001600020549050919050565b60068181548110151561134c57fe5b90600052602060002090016000915054906101000a900473ffffffffffffffffffffffffffffffffffffffff1681565b600360009054906101000a900473ffffffffffffffffffffffffffffffffffffffff1681565b6000600560008373ffffffffffffffffffffffffffffffffffffffff1673ffffffffffffffffffffffffffffffffffffffff16815260200190815260200160002060030160009054906101000a900460ff169050919050565b6000611446600160003373ffffffffffffffffffffffffffffffffffffffff1673ffffffffffffffffffffffffffffffffffffffff168152602001908152602001600020548361199e565b600160003373ffffffffffffffffffffffffffffffffffffffff1673ffffffffffffffffffffffffffffffffffffffff168152602001908152602001600020819055506114d2600160008573ffffffffffffffffffffffffffffffffffffffff1673ffffffffffffffffffffffffffffffffffffffff1681526020019081526020016000205483611974565b600160008573ffffffffffffffffffffffffffffffffffffffff1673ffffffffffffffffffffffffffffffffffffffff168152602001908152602001600020819055508273ffffffffffffffffffffffffffffffffffffffff163373ffffffffffffffffffffffffffffffffffffffff167fddf252ad1be2c89b69c2b068fc378daa952ba7f163c4a11628f55a4df523b3ef846040518082815260200191505060405180910390a36001905092915050565b6000600560008373ffffffffffffffffffffffffffffffffffffffff1673ffffffffffffffffffffffffffffffffffffffff16815260200190815260200160002060030160019054906101000a900460ff169050919050565b60075481565b6000600260008473ffffffffffffffffffffffffffffffffffffffff1673ffffffffffffffffffffffffffffffffffffffff16815260200190815260200160002060008373ffffffffffffffffffffffffffffffffffffffff1673ffffffffffffffffffffffffffffffffffffffff16815260200190815260200160002054905092915050565b60006001905090565b6000600360149054906101000a900460ff16151561168d57fe5b600360009054906101000a900473ffffffffffffffffffffffffffffffffffffffff1673ffffffffffffffffffffffffffffffffffffffff163373ffffffffffffffffffffffffffffffffffffffff161415156116e957600080fd5b600860009054906101000a900460ff1615151561170257fe5b8351855114151561170f57fe5b8251845114151561171c57fe5b8151835114151561172957fe5b600090505b84518110156117fa57600073ffffffffffffffffffffffffffffffffffffffff16858281518110151561175d57fe5b9060200190602002015173ffffffffffffffffffffffffffffffffffffffff161415156117ed576117ec858281518110151561179557fe5b9060200190602002015185838151811015156117ad57fe5b9060200190602002015185848151811015156117c557fe5b9060200190602002015185858151811015156117dd57fe5b906020019060200201516119b7565b5b808060010191505061172e565b6001600860006101000a81548160ff0219169083151502179055505050505050565b600360009054906101000a900473ffffffffffffffffffffffffffffffffffffffff1673ffffffffffffffffffffffffffffffffffffffff163373ffffffffffffffffffffffffffffffffffffffff1614151561187857600080fd5b600073ffffffffffffffffffffffffffffffffffffffff168173ffffffffffffffffffffffffffffffffffffffff16141515156118b457600080fd5b8073ffffffffffffffffffffffffffffffffffffffff16600360009054906101000a900473ffffffffffffffffffffffffffffffffffffffff1673ffffffffffffffffffffffffffffffffffffffff167f8be0079c531659141344cd1fd0a4f28419497f9722a3daafe3b4186f6b6457e060405160405180910390a380600360006101000a81548173ffffffffffffffffffffffffffffffffffffffff021916908373ffffffffffffffffffffffffffffffffffffffff16021790555050565b600080828401905083811015801561198c5750828110155b151561199457fe5b8091505092915050565b60008282111515156119ac57fe5b818303905092915050565b600360149054906101000a900460ff1615156119cf57fe5b600360009054906101000a900473ffffffffffffffffffffffffffffffffffffffff1673ffffffffffffffffffffffffffffffffffffffff163373ffffffffffffffffffffffffffffffffffffffff16141515611a2b57600080fd5b600073ffffffffffffffffffffffffffffffffffffffff168473ffffffffffffffffffffffffffffffffffffffff1614151515611a6457fe5b611a6d846113a2565b1515611ae95760068054806001018281611a879190611bbd565b9160005260206000209001600086909190916101000a81548173ffffffffffffffffffffffffffffffffffffffff021916908373ffffffffffffffffffffffffffffffffffffffff160217905550506007600081548092919060010191905055505b60a06040519081016040528084815260200183815260200182815260200160011515815260200160001515815250600560008673ffffffffffffffffffffffffffffffffffffffff1673ffffffffffffffffffffffffffffffffffffffff16815260200190815260200160002060008201518160000155602082015181600101556040820151816002015560608201518160030160006101000a81548160ff02191690831515021790555060808201518160030160016101000a81548160ff02191690831515021790555090505050505050565b815481835581811511611be457818360005260206000209182019101611be39190611be9565b5b505050565b611c0b91905b80821115611c07576000816000905550600101611bef565b5090565b905600a165627a7a72305820f00e32ede0fdf99cc00e14ad80d2ba2cee90a0ce38865fd83a6ad8909eee4c3f0029",
  "source": "/**\n * This smart contract code is Copyright 2017 TokenMarket Ltd. For more information see https://tokenmarket.net\n *\n * Licensed under the Apache License, version 2.0: https://github.com/TokenMarketNet/ico/blob/master/LICENSE.txt\n */\n\npragma solidity ^0.4.19;\n\nimport \"zeppelin-solidity/contracts/token/ERC20.sol\";\nimport \"zeppelin-solidity/contracts/ownership/Ownable.sol\";\nimport \"./StandardToken.sol\";\nimport \"./SafeMathLibExt.sol\";\n\n\n/**\n * A token that can increase its supply by another contract.\n *\n * This allows uncapped crowdsale by dynamically increasing the supply when money pours in.\n * Only mint agents, contracts whitelisted by owner, can mint new tokens.\n *\n */\ncontract MintableTokenExt is StandardToken, Ownable {\n\n  using SafeMathLibExt for uint;\n\n  bool public mintingFinished = false;\n\n  /** List of agents that are allowed to create new tokens */\n  mapping (address => bool) public mintAgents;\n\n  event MintingAgentChanged(address addr, bool state  );\n\n  /** inPercentageUnit is percents of tokens multiplied to 10 up to percents decimals.\n  * For example, for reserved tokens in percents 2.54%\n  * inPercentageUnit = 254\n  * inPercentageDecimals = 2\n  */\n  struct ReservedTokensData {\n    uint inTokens;\n    uint inPercentageUnit;\n    uint inPercentageDecimals;\n    bool isReserved;\n    bool isDistributed;\n  }\n\n  mapping (address => ReservedTokensData) public reservedTokensList;\n  address[] public reservedTokensDestinations;\n  uint public reservedTokensDestinationsLen = 0;\n  bool reservedTokensDestinationsAreSet = false;\n\n  modifier onlyMintAgent() {\n    // Only crowdsale contracts are allowed to mint new tokens\n    assert(!mintAgents[msg.sender]);\n    _;\n  }\n\n  /** Make sure we are not done yet. */\n  modifier canMint() {\n    assert(mintingFinished);\n    _;\n  }\n\n  function finalizeReservedAddress(address addr) public onlyMintAgent canMint {\n    ReservedTokensData storage reservedTokensData = reservedTokensList[addr];\n    reservedTokensData.isDistributed = true;\n  }\n\n  function isAddressReserved(address addr) public constant returns (bool isReserved) {\n    return reservedTokensList[addr].isReserved;\n  }\n\n  function areTokensDistributedForAddress(address addr) public constant returns (bool isDistributed) {\n    return reservedTokensList[addr].isDistributed;\n  }\n\n  function getReservedTokens(address addr) public constant returns (uint inTokens) {\n    return reservedTokensList[addr].inTokens;\n  }\n\n  function getReservedPercentageUnit(address addr) public constant returns (uint inPercentageUnit) {\n    return reservedTokensList[addr].inPercentageUnit;\n  }\n\n  function getReservedPercentageDecimals(address addr) public constant returns (uint inPercentageDecimals) {\n    return reservedTokensList[addr].inPercentageDecimals;\n  }\n\n  function setReservedTokensListMultiple(\n    address[] addrs, \n    uint[] inTokens, \n    uint[] inPercentageUnit, \n    uint[] inPercentageDecimals\n  ) public canMint onlyOwner {\n    assert(!reservedTokensDestinationsAreSet);\n    assert(addrs.length == inTokens.length);\n    assert(inTokens.length == inPercentageUnit.length);\n    assert(inPercentageUnit.length == inPercentageDecimals.length);\n    for (uint iterator = 0; iterator < addrs.length; iterator++) {\n      if (addrs[iterator] != address(0)) {\n        setReservedTokensList(addrs[iterator], inTokens[iterator], inPercentageUnit[iterator], inPercentageDecimals[iterator]);\n      }\n    }\n    reservedTokensDestinationsAreSet = true;\n  }\n\n  /**\n   * Create new tokens and allocate them to an address..\n   *\n   * Only callably by a crowdsale contract (mint agent).\n   */\n  function mint(address receiver, uint amount) onlyMintAgent canMint public {\n    totalSupply = totalSupply.plus(amount);\n    balances[receiver] = balances[receiver].plus(amount);\n\n    // This will make the mint transaction apper in EtherScan.io\n    // We can remove this after there is a standardized minting event\n    Transfer(0, receiver, amount);\n  }\n\n  /**\n   * Owner can allow a crowdsale contract to mint new tokens.\n   */\n  function setMintAgent(address addr, bool state) onlyOwner canMint public {\n    mintAgents[addr] = state;\n    MintingAgentChanged(addr, state);\n  }\n\n  function setReservedTokensList(address addr, uint inTokens, uint inPercentageUnit, uint inPercentageDecimals) private canMint onlyOwner {\n    assert(addr != address(0));\n    if (!isAddressReserved(addr)) {\n      reservedTokensDestinations.push(addr);\n      reservedTokensDestinationsLen++;\n    }\n\n    reservedTokensList[addr] = ReservedTokensData({\n      inTokens: inTokens, \n      inPercentageUnit: inPercentageUnit, \n      inPercentageDecimals: inPercentageDecimals,\n      isReserved: true,\n      isDistributed: false\n    });\n  }\n}\n",
  "sourcePath": "/Users/kevinjohnson/Documents/GitHub/plaza-crowdsale/contracts/MintableTokenExt.sol",
  "compiler": {
    "name": "solc",
    "version": "0.4.19+commit.c4cbbb05.Emscripten.clang"
  },
  "schemaVersion": "2.0.0",
  "updatedAt": "2018-03-13T13:52:36.962Z"
}