{
  "contractName": "NullFinalizeAgentExt",
  "abi": [
    {
      "constant": true,
      "inputs": [],
      "name": "isFinalizeAgent",
      "outputs": [
        {
          "name": "",
          "type": "bool"
        }
      ],
      "payable": false,
      "stateMutability": "view",
      "type": "function"
    },
    {
      "constant": true,
      "inputs": [],
      "name": "crowdsale",
      "outputs": [
        {
          "name": "",
          "type": "address"
        }
      ],
      "payable": false,
      "stateMutability": "view",
      "type": "function"
    },
    {
      "constant": true,
      "inputs": [],
      "name": "reservedTokensAreDistributed",
      "outputs": [
        {
          "name": "",
          "type": "bool"
        }
      ],
      "payable": false,
      "stateMutability": "view",
      "type": "function"
    },
    {
      "inputs": [
        {
          "name": "_crowdsale",
          "type": "address"
        }
      ],
      "payable": false,
      "stateMutability": "nonpayable",
      "type": "constructor"
    },
    {
      "constant": true,
      "inputs": [],
      "name": "isSane",
      "outputs": [
        {
          "name": "",
          "type": "bool"
        }
      ],
      "payable": false,
      "stateMutability": "view",
      "type": "function"
    },
    {
      "constant": false,
      "inputs": [
        {
          "name": "reservedTokensDistributionBatch",
          "type": "uint256"
        }
      ],
      "name": "distributeReservedTokens",
      "outputs": [],
      "payable": false,
      "stateMutability": "nonpayable",
      "type": "function"
    },
    {
      "constant": false,
      "inputs": [],
      "name": "finalizeCrowdsale",
      "outputs": [],
      "payable": false,
      "stateMutability": "nonpayable",
      "type": "function"
    }
  ],
  "bytecode": "0x606060405260008060006101000a81548160ff021916908315150217905550341561002957600080fd5b6040516020806102a28339810160405280805190602001909190505080600060016101000a81548173ffffffffffffffffffffffffffffffffffffffff021916908373ffffffffffffffffffffffffffffffffffffffff1602179055505061020c806100966000396000f300606060405260043610610078576000357c0100000000000000000000000000000000000000000000000000000000900463ffffffff1680630bf318a31461007d578063614cb9041461009257806382771c8e146100bf5780639c1e03a0146100ec578063cddaf24114610141578063f9cb6d7a14610164575b600080fd5b341561008857600080fd5b610090610191565b005b341561009d57600080fd5b6100a5610193565b604051808215151515815260200191505060405180910390f35b34156100ca57600080fd5b6100d261019c565b604051808215151515815260200191505060405180910390f35b34156100f757600080fd5b6100ff6101a5565b604051808273ffffffffffffffffffffffffffffffffffffffff1673ffffffffffffffffffffffffffffffffffffffff16815260200191505060405180910390f35b341561014c57600080fd5b61016260048080359060200190919050506101cb565b005b341561016f57600080fd5b6101776101ce565b604051808215151515815260200191505060405180910390f35b565b60006001905090565b60006001905090565b600060019054906101000a900473ffffffffffffffffffffffffffffffffffffffff1681565b50565b6000809054906101000a900460ff16815600a165627a7a72305820a93c36038e12bed1b49be856c27e9f9be3daba6410068fc066f8087d162e8f400029",
  "source": "/**\n * This smart contract code is Copyright 2017 TokenMarket Ltd. For more information see https://tokenmarket.net\n *\n * Licensed under the Apache License, version 2.0: https://github.com/TokenMarketNet/ico/blob/master/LICENSE.txt\n */\n\npragma solidity ^0.4.19;\n\nimport \"./CrowdsaleExt.sol\";\nimport \"./ReleasableToken.sol\";\n\n/**\n * A finalize agent that does nothing.\n *\n * - Token transfer must be manually released by the owner\n */\ncontract NullFinalizeAgentExt is FinalizeAgent {\n\n  CrowdsaleExt public crowdsale;\n\n  function NullFinalizeAgentExt(CrowdsaleExt _crowdsale) {\n    crowdsale = _crowdsale;\n  }\n\n  /** Check that we can release the token */\n  function isSane() public constant returns (bool) {\n    return true;\n  }\n\n  function distributeReservedTokens(uint reservedTokensDistributionBatch) public {\n  }\n\n  /** Called once by crowdsale finalize() if the sale was success. */\n  function finalizeCrowdsale() public {\n  }\n\n}",
  "sourcePath": "/Users/kevinjohnson/Documents/GitHub/plaza-crowdsale/contracts/NullFinalizeAgentExt.sol",
  "compiler": {
    "name": "solc",
    "version": "0.4.19+commit.c4cbbb05.Emscripten.clang"
  },
  "schemaVersion": "2.0.0",
  "updatedAt": "2018-03-13T08:29:19.105Z"
}