{
  "contractName": "ReservedTokensFinalizeAgent",
  "abi": [
    {
      "constant": false,
      "inputs": [],
      "name": "finalizeCrowdsale",
      "outputs": [],
      "payable": false,
      "stateMutability": "nonpayable",
      "type": "function"
    },
    {
      "constant": true,
      "inputs": [],
      "name": "isFinalizeAgent",
      "outputs": [
        {
          "name": "",
          "type": "bool"
        }
      ],
      "payable": false,
      "stateMutability": "view",
      "type": "function"
    },
    {
      "constant": true,
      "inputs": [],
      "name": "isSane",
      "outputs": [
        {
          "name": "",
          "type": "bool"
        }
      ],
      "payable": false,
      "stateMutability": "view",
      "type": "function"
    },
    {
      "constant": true,
      "inputs": [],
      "name": "crowdsale",
      "outputs": [
        {
          "name": "",
          "type": "address"
        }
      ],
      "payable": false,
      "stateMutability": "view",
      "type": "function"
    },
    {
      "constant": true,
      "inputs": [],
      "name": "distributedReservedTokensDestinationsLen",
      "outputs": [
        {
          "name": "",
          "type": "uint256"
        }
      ],
      "payable": false,
      "stateMutability": "view",
      "type": "function"
    },
    {
      "constant": false,
      "inputs": [
        {
          "name": "reservedTokensDistributionBatch",
          "type": "uint256"
        }
      ],
      "name": "distributeReservedTokens",
      "outputs": [],
      "payable": false,
      "stateMutability": "nonpayable",
      "type": "function"
    },
    {
      "constant": true,
      "inputs": [],
      "name": "reservedTokensAreDistributed",
      "outputs": [
        {
          "name": "",
          "type": "bool"
        }
      ],
      "payable": false,
      "stateMutability": "view",
      "type": "function"
    },
    {
      "constant": true,
      "inputs": [],
      "name": "token",
      "outputs": [
        {
          "name": "",
          "type": "address"
        }
      ],
      "payable": false,
      "stateMutability": "view",
      "type": "function"
    },
    {
      "inputs": [
        {
          "name": "_token",
          "type": "address"
        },
        {
          "name": "_crowdsale",
          "type": "address"
        }
      ],
      "payable": false,
      "stateMutability": "nonpayable",
      "type": "constructor"
    }
  ],
  "bytecode": "0x606060405260008060006101000a81548160ff0219169083151502179055506000600255341561002e57600080fd5b60405160408061137f8339810160405280805190602001909190805190602001909190505081600060016101000a81548173ffffffffffffffffffffffffffffffffffffffff021916908373ffffffffffffffffffffffffffffffffffffffff16021790555080600160006101000a81548173ffffffffffffffffffffffffffffffffffffffff021916908373ffffffffffffffffffffffffffffffffffffffff1602179055505050611299806100e66000396000f30060606040526004361061008e576000357c0100000000000000000000000000000000000000000000000000000000900463ffffffff1680630bf318a314610093578063614cb904146100a857806382771c8e146100d55780639c1e03a014610102578063c71a7aea14610157578063cddaf24114610180578063f9cb6d7a146101a3578063fc0c546a146101d0575b600080fd5b341561009e57600080fd5b6100a6610225565b005b34156100b357600080fd5b6100bb6103e1565b604051808215151515815260200191505060405180910390f35b34156100e057600080fd5b6100e86103ea565b604051808215151515815260200191505060405180910390f35b341561010d57600080fd5b6101156104c8565b604051808273ffffffffffffffffffffffffffffffffffffffff1673ffffffffffffffffffffffffffffffffffffffff16815260200191505060405180910390f35b341561016257600080fd5b61016a6104ee565b6040518082815260200191505060405180910390f35b341561018b57600080fd5b6101a160048080359060200190919050506104f4565b005b34156101ae57600080fd5b6101b6611235565b604051808215151515815260200191505060405180910390f35b34156101db57600080fd5b6101e3611247565b604051808273ffffffffffffffffffffffffffffffffffffffff1673ffffffffffffffffffffffffffffffffffffffff16815260200191505060405180910390f35b600160009054906101000a900473ffffffffffffffffffffffffffffffffffffffff1673ffffffffffffffffffffffffffffffffffffffff163373ffffffffffffffffffffffffffffffffffffffff1614151561027e57fe5b60008060019054906101000a900473ffffffffffffffffffffffffffffffffffffffff1673ffffffffffffffffffffffffffffffffffffffff1663c33105176000604051602001526040518163ffffffff167c0100000000000000000000000000000000000000000000000000000000028152600401602060405180830381600087803b151561030d57600080fd5b6102c65a03f1151561031e57600080fd5b505050604051805190501115610346576000809054906101000a900460ff16151561034557fe5b5b600060019054906101000a900473ffffffffffffffffffffffffffffffffffffffff1673ffffffffffffffffffffffffffffffffffffffff16635f412d4f6040518163ffffffff167c0100000000000000000000000000000000000000000000000000000000028152600401600060405180830381600087803b15156103cb57600080fd5b6102c65a03f115156103dc57600080fd5b505050565b60006001905090565b60003073ffffffffffffffffffffffffffffffffffffffff16600060019054906101000a900473ffffffffffffffffffffffffffffffffffffffff1673ffffffffffffffffffffffffffffffffffffffff1663d1f276d36000604051602001526040518163ffffffff167c0100000000000000000000000000000000000000000000000000000000028152600401602060405180830381600087803b151561049157600080fd5b6102c65a03f115156104a257600080fd5b5050506040518051905073ffffffffffffffffffffffffffffffffffffffff1614905090565b600160009054906101000a900473ffffffffffffffffffffffffffffffffffffffff1681565b60025481565b600080600080600080600080600080600080600160009054906101000a900473ffffffffffffffffffffffffffffffffffffffff1673ffffffffffffffffffffffffffffffffffffffff163373ffffffffffffffffffffffffffffffffffffffff1614151561055f57fe5b60008d11151561056b57fe5b6000809054906101000a900460ff1615151561058357fe5b600060019054906101000a900473ffffffffffffffffffffffffffffffffffffffff1673ffffffffffffffffffffffffffffffffffffffff1663c33105176000604051602001526040518163ffffffff167c0100000000000000000000000000000000000000000000000000000000028152600401602060405180830381600087803b151561061157600080fd5b6102c65a03f1151561062257600080fd5b5050506040518051905060025410151561063857fe5b60009b5060009a505b600160009054906101000a900473ffffffffffffffffffffffffffffffffffffffff1673ffffffffffffffffffffffffffffffffffffffff1663ebdfa4556000604051602001526040518163ffffffff167c0100000000000000000000000000000000000000000000000000000000028152600401602060405180830381600087803b15156106cf57600080fd5b6102c65a03f115156106e057600080fd5b5050506040518051905060ff168b60ff1610156108dd57600160009054906101000a900473ffffffffffffffffffffffffffffffffffffffff1673ffffffffffffffffffffffffffffffffffffffff1663bede2cac8c6000604051602001526040518263ffffffff167c0100000000000000000000000000000000000000000000000000000000028152600401808260ff168152602001915050602060405180830381600087803b151561079357600080fd5b6102c65a03f115156107a457600080fd5b5050506040518051905099508b73__SafeMathLibExt________________________6366098d4f90918c73ffffffffffffffffffffffffffffffffffffffff1663518ab2a86000604051602001526040518163ffffffff167c0100000000000000000000000000000000000000000000000000000000028152600401602060405180830381600087803b151561083957600080fd5b6102c65a03f1151561084a57600080fd5b505050604051805190506000604051602001526040518363ffffffff167c0100000000000000000000000000000000000000000000000000000000028152600401808381526020018281526020019250505060206040518083038186803b15156108b357600080fd5b6102c65a03f415156108c457600080fd5b505050604051805190509b508a806001019b5050610641565b6002549850600060019054906101000a900473ffffffffffffffffffffffffffffffffffffffff1673ffffffffffffffffffffffffffffffffffffffff1663c33105176000604051602001526040518163ffffffff167c0100000000000000000000000000000000000000000000000000000000028152600401602060405180830381600087803b151561097057600080fd5b6102c65a03f1151561098157600080fd5b5050506040518051905073__SafeMathLibExt________________________63f4f3bdc190916002546000604051602001526040518363ffffffff167c0100000000000000000000000000000000000000000000000000000000028152600401808381526020018281526020019250505060206040518083038186803b1515610a0957600080fd5b6102c65a03f41515610a1a57600080fd5b5050506040518051905097508c88101515610a33578c97505b87890196508895505b8686101561115957600060019054906101000a900473ffffffffffffffffffffffffffffffffffffffff1673ffffffffffffffffffffffffffffffffffffffff16637386f0a7876000604051602001526040518263ffffffff167c010000000000000000000000000000000000000000000000000000000002815260040180828152602001915050602060405180830381600087803b1515610add57600080fd5b6102c65a03f11515610aee57600080fd5b505050604051805190509450600060019054906101000a900473ffffffffffffffffffffffffffffffffffffffff1673ffffffffffffffffffffffffffffffffffffffff1663b4ecb847866000604051602001526040518263ffffffff167c0100000000000000000000000000000000000000000000000000000000028152600401808273ffffffffffffffffffffffffffffffffffffffff1673ffffffffffffffffffffffffffffffffffffffff168152602001915050602060405180830381600087803b1515610bbf57600080fd5b6102c65a03f11515610bd057600080fd5b50505060405180519050151561114c57600060019054906101000a900473ffffffffffffffffffffffffffffffffffffffff1673ffffffffffffffffffffffffffffffffffffffff1663612544b3866000604051602001526040518263ffffffff167c0100000000000000000000000000000000000000000000000000000000028152600401808273ffffffffffffffffffffffffffffffffffffffff1673ffffffffffffffffffffffffffffffffffffffff168152602001915050602060405180830381600087803b1515610ca557600080fd5b6102c65a03f11515610cb657600080fd5b505050604051805190509250600060019054906101000a900473ffffffffffffffffffffffffffffffffffffffff1673ffffffffffffffffffffffffffffffffffffffff16633d0acdaa866000604051602001526040518263ffffffff167c0100000000000000000000000000000000000000000000000000000000028152600401808273ffffffffffffffffffffffffffffffffffffffff1673ffffffffffffffffffffffffffffffffffffffff168152602001915050602060405180830381600087803b1515610d8757600080fd5b6102c65a03f11515610d9857600080fd5b505050604051805190509150600060019054906101000a900473ffffffffffffffffffffffffffffffffffffffff1673ffffffffffffffffffffffffffffffffffffffff166345e7e140866000604051602001526040518263ffffffff167c0100000000000000000000000000000000000000000000000000000000028152600401808273ffffffffffffffffffffffffffffffffffffffff1673ffffffffffffffffffffffffffffffffffffffff168152602001915050602060405180830381600087803b1515610e6957600080fd5b6102c65a03f11515610e7a57600080fd5b5050506040518051905090506000821115610f8757606481600a0a838e02811515610ea157fe5b04811515610eab57fe5b049350600060019054906101000a900473ffffffffffffffffffffffffffffffffffffffff1673ffffffffffffffffffffffffffffffffffffffff166340c10f1986866040518363ffffffff167c0100000000000000000000000000000000000000000000000000000000028152600401808373ffffffffffffffffffffffffffffffffffffffff1673ffffffffffffffffffffffffffffffffffffffff16815260200182815260200192505050600060405180830381600087803b1515610f7257600080fd5b6102c65a03f11515610f8357600080fd5b5050505b600083111561106957600060019054906101000a900473ffffffffffffffffffffffffffffffffffffffff1673ffffffffffffffffffffffffffffffffffffffff166340c10f1986856040518363ffffffff167c0100000000000000000000000000000000000000000000000000000000028152600401808373ffffffffffffffffffffffffffffffffffffffff1673ffffffffffffffffffffffffffffffffffffffff16815260200182815260200192505050600060405180830381600087803b151561105457600080fd5b6102c65a03f1151561106557600080fd5b5050505b600060019054906101000a900473ffffffffffffffffffffffffffffffffffffffff1673ffffffffffffffffffffffffffffffffffffffff16636ffc22b8866040518263ffffffff167c0100000000000000000000000000000000000000000000000000000000028152600401808273ffffffffffffffffffffffffffffffffffffffff1673ffffffffffffffffffffffffffffffffffffffff168152602001915050600060405180830381600087803b151561112557600080fd5b6102c65a03f1151561113657600080fd5b5050506002600081548092919060010191905055505b8580600101965050610a3c565b600060019054906101000a900473ffffffffffffffffffffffffffffffffffffffff1673ffffffffffffffffffffffffffffffffffffffff1663c33105176000604051602001526040518163ffffffff167c0100000000000000000000000000000000000000000000000000000000028152600401602060405180830381600087803b15156111e757600080fd5b6102c65a03f115156111f857600080fd5b5050506040518051905060025414156112265760016000806101000a81548160ff0219169083151502179055505b50505050505050505050505050565b6000809054906101000a900460ff1681565b600060019054906101000a900473ffffffffffffffffffffffffffffffffffffffff16815600a165627a7a7230582088d5c00789df07e78561d7a176b6a2a5eb1a5fceb501fabf79831720db74886e0029",
  "source": "pragma solidity ^0.4.18;\n\nimport \"./SafeMathLibExt.sol\";\nimport \"./CrowdsaleExt.sol\";\nimport \"./CrowdsaleTokenExt.sol\";\n\n/**\n * The default behavior for the crowdsale end.\n *\n * Unlock tokens.\n */\ncontract ReservedTokensFinalizeAgent is FinalizeAgent {\n  using SafeMathLibExt for uint;\n  CrowdsaleTokenExt public token;\n  CrowdsaleExt public crowdsale;\n\n  uint public distributedReservedTokensDestinationsLen = 0;\n\n  function ReservedTokensFinalizeAgent(CrowdsaleTokenExt _token, CrowdsaleExt _crowdsale) public {\n    token = _token;\n    crowdsale = _crowdsale;\n  }\n\n  /** Check that we can release the token */\n  function isSane() public constant returns (bool) {\n    return (token.releaseAgent() == address(this));\n  }\n\n  //distributes reserved tokens. Should be called before finalization\n  function distributeReservedTokens(uint reservedTokensDistributionBatch) public {\n    assert(msg.sender == address(crowdsale));\n\n    assert(reservedTokensDistributionBatch > 0);\n    assert(!reservedTokensAreDistributed);\n    assert(distributedReservedTokensDestinationsLen < token.reservedTokensDestinationsLen());\n\n\n    // How many % of tokens the founders and others get\n    uint tokensSold = 0;\n    for (uint8 i = 0; i < crowdsale.joinedCrowdsalesLen(); i++) {\n      CrowdsaleExt tier = CrowdsaleExt(crowdsale.joinedCrowdsales(i));\n      tokensSold = tokensSold.plus(tier.tokensSold());\n    }\n\n    uint startLooping = distributedReservedTokensDestinationsLen;\n    uint batch = token.reservedTokensDestinationsLen().minus(distributedReservedTokensDestinationsLen);\n    if (batch >= reservedTokensDistributionBatch) {\n      batch = reservedTokensDistributionBatch;\n    }\n    uint endLooping = startLooping + batch;\n\n    // move reserved tokens\n    for (uint j = startLooping; j < endLooping; j++) {\n      address reservedAddr = token.reservedTokensDestinations(j);\n      if (!token.areTokensDistributedForAddress(reservedAddr)) {\n        uint allocatedBonusInPercentage;\n        uint allocatedBonusInTokens = token.getReservedTokens(reservedAddr);\n        uint percentsOfTokensUnit = token.getReservedPercentageUnit(reservedAddr);\n        uint percentsOfTokensDecimals = token.getReservedPercentageDecimals(reservedAddr);\n\n        if (percentsOfTokensUnit > 0) {\n          allocatedBonusInPercentage = tokensSold * percentsOfTokensUnit / 10**percentsOfTokensDecimals / 100;\n          token.mint(reservedAddr, allocatedBonusInPercentage);\n        }\n\n        if (allocatedBonusInTokens > 0) {\n          token.mint(reservedAddr, allocatedBonusInTokens);\n        }\n\n        token.finalizeReservedAddress(reservedAddr);\n        distributedReservedTokensDestinationsLen++;\n      }\n    }\n\n    if (distributedReservedTokensDestinationsLen == token.reservedTokensDestinationsLen()) {\n      reservedTokensAreDistributed = true;\n    }\n  }\n\n  /** Called once by crowdsale finalize() if the sale was success. */\n  function finalizeCrowdsale() public {\n    assert(msg.sender == address(crowdsale));\n\n    if (token.reservedTokensDestinationsLen() > 0) {\n      assert(reservedTokensAreDistributed);\n    }\n\n    token.releaseTokenTransfer();\n  }\n\n}",
  "sourcePath": "/Users/kevinjohnson/Documents/GitHub/plaza-crowdsale/contracts/ReservedTokensFinalizeAgent.sol",
  "compiler": {
    "name": "solc",
    "version": "0.4.18+commit.9cf6e910.Emscripten.clang"
  },
  "schemaVersion": "1.0.1",
  "updatedAt": "2018-05-06T12:16:59.862Z"
}