{
  "contractName": "SafeMathLibExt",
  "abi": [
    {
      "constant": false,
      "inputs": [
        {
          "name": "a",
          "type": "uint256"
        },
        {
          "name": "b",
          "type": "uint256"
        }
      ],
      "name": "times",
      "outputs": [
        {
          "name": "",
          "type": "uint256"
        }
      ],
      "payable": false,
      "stateMutability": "nonpayable",
      "type": "function"
    },
    {
      "constant": false,
      "inputs": [
        {
          "name": "a",
          "type": "uint256"
        },
        {
          "name": "b",
          "type": "uint256"
        }
      ],
      "name": "divides",
      "outputs": [
        {
          "name": "",
          "type": "uint256"
        }
      ],
      "payable": false,
      "stateMutability": "nonpayable",
      "type": "function"
    },
    {
      "constant": false,
      "inputs": [
        {
          "name": "a",
          "type": "uint256"
        },
        {
          "name": "b",
          "type": "uint256"
        }
      ],
      "name": "minus",
      "outputs": [
        {
          "name": "",
          "type": "uint256"
        }
      ],
      "payable": false,
      "stateMutability": "nonpayable",
      "type": "function"
    },
    {
      "constant": false,
      "inputs": [
        {
          "name": "a",
          "type": "uint256"
        },
        {
          "name": "b",
          "type": "uint256"
        }
      ],
      "name": "plus",
      "outputs": [
        {
          "name": "",
          "type": "uint256"
        }
      ],
      "payable": false,
      "stateMutability": "nonpayable",
      "type": "function"
    }
  ],
  "bytecode": "0x6060604052341561000f57600080fd5b6102128061001e6000396000f300606060405260043610610062576000357c0100000000000000000000000000000000000000000000000000000000900463ffffffff1680631d3b9edf1461006757806366098d4f1461009c578063a12f69e0146100d1578063f4f3bdc114610106575b600080fd5b610086600480803590602001909190803590602001909190505061013b565b6040518082815260200191505060405180910390f35b6100bb600480803590602001909190803590602001909190505061016e565b6040518082815260200191505060405180910390f35b6100f0600480803590602001909190803590602001909190505061018c565b6040518082815260200191505060405180910390f35b61012560048080359060200190919080359060200190919050506101cd565b6040518082815260200191505060405180910390f35b6000808284029050600084148061015c575082848281151561015957fe5b04145b151561016457fe5b8091505092915050565b600080828401905083811015151561018257fe5b8091505092915050565b60008060008311151561019b57fe5b82848115156101a657fe5b04905082848115156101b457fe5b0681840201841415156101c357fe5b8091505092915050565b60008282111515156101db57fe5b8183039050929150505600a165627a7a72305820edf42de4d6aed57a3a3dc748f6177f57b7bee9282aa5cf9b2710b56bf08498240029",
  "source": "// Created using Token Wizard https://github.com/poanetwork/token-wizard by POA Network \n/**\n * This smart contract code is Copyright 2017 TokenMarket Ltd. For more information see https://tokenmarket.net\n *\n * Licensed under the Apache License, version 2.0: https://github.com/TokenMarketNet/ico/blob/master/LICENSE.txt\n */\n\npragma solidity ^0.4.18;\n\n/**\n * Safe unsigned safe math.\n *\n * https://blog.aragon.one/library-driven-development-in-solidity-2bebcaf88736#.750gwtwli\n *\n * Originally from https://raw.githubusercontent.com/AragonOne/zeppelin-solidity/master/contracts/SafeMathLib.sol\n *\n * Maintained here until merged to mainline zeppelin-solidity.\n *\n */\nlibrary SafeMathLibExt {\n\n  function times(uint a, uint b) returns (uint) {\n    uint c = a * b;\n    assert(a == 0 || c / a == b);\n    return c;\n  }\n\n  function divides(uint a, uint b) returns (uint) {\n    assert(b > 0);\n    uint c = a / b;\n    assert(a == b * c + a % b);\n    return c;\n  }\n\n  function minus(uint a, uint b) returns (uint) {\n    assert(b <= a);\n    return a - b;\n  }\n\n  function plus(uint a, uint b) returns (uint) {\n    uint c = a + b;\n    assert(c>=a);\n    return c;\n  }\n\n}\n",
  "sourcePath": "/Users/kevinjohnson/Documents/GitHub/plaza-crowdsale/contracts/SafeMathLibExt.sol",
  "compiler": {
    "name": "solc",
    "version": "0.4.19+commit.c4cbbb05.Emscripten.clang"
  },
  "schemaVersion": "2.0.0",
  "updatedAt": "2018-03-14T19:20:03.061Z"
}