{
  "contractName": "SafeMathLib",
  "abi": [
    {
      "constant": false,
      "inputs": [
        {
          "name": "a",
          "type": "uint256"
        },
        {
          "name": "b",
          "type": "uint256"
        }
      ],
      "name": "times",
      "outputs": [
        {
          "name": "",
          "type": "uint256"
        }
      ],
      "payable": false,
      "stateMutability": "nonpayable",
      "type": "function"
    },
    {
      "constant": false,
      "inputs": [
        {
          "name": "a",
          "type": "uint256"
        },
        {
          "name": "b",
          "type": "uint256"
        }
      ],
      "name": "minus",
      "outputs": [
        {
          "name": "",
          "type": "uint256"
        }
      ],
      "payable": false,
      "stateMutability": "nonpayable",
      "type": "function"
    },
    {
      "constant": false,
      "inputs": [
        {
          "name": "a",
          "type": "uint256"
        },
        {
          "name": "b",
          "type": "uint256"
        }
      ],
      "name": "plus",
      "outputs": [
        {
          "name": "",
          "type": "uint256"
        }
      ],
      "payable": false,
      "stateMutability": "nonpayable",
      "type": "function"
    }
  ],
  "bytecode": "0x6060604052341561000f57600080fd5b6101918061001e6000396000f300606060405260043610610057576000357c0100000000000000000000000000000000000000000000000000000000900463ffffffff1680631d3b9edf1461005c57806366098d4f14610091578063f4f3bdc1146100c6575b600080fd5b61007b60048080359060200190919080359060200190919050506100fb565b6040518082815260200191505060405180910390f35b6100b0600480803590602001909190803590602001909190505061012e565b6040518082815260200191505060405180910390f35b6100e5600480803590602001909190803590602001909190505061014c565b6040518082815260200191505060405180910390f35b6000808284029050600084148061011c575082848281151561011957fe5b04145b151561012457fe5b8091505092915050565b600080828401905083811015151561014257fe5b8091505092915050565b600082821115151561015a57fe5b8183039050929150505600a165627a7a723058205d76bd452bec92d5a101d5b1edd58389b5195e173e0e34e4e6642ca670e8f8d70029",
  "source": "/**\n * This smart contract code is Copyright 2017 TokenMarket Ltd. For more information see https://tokenmarket.net\n *\n * Licensed under the Apache License, version 2.0: https://github.com/TokenMarketNet/ico/blob/master/LICENSE.txt\n */\n\npragma solidity ^0.4.19;\n\n/**\n * Safe unsigned safe math.\n *\n * https://blog.aragon.one/library-driven-development-in-solidity-2bebcaf88736#.750gwtwli\n *\n * Originally from https://raw.githubusercontent.com/AragonOne/zeppelin-solidity/master/contracts/SafeMathLib.sol\n *\n * Maintained here until merged to mainline zeppelin-solidity.\n *\n */\nlibrary SafeMathLib {\n\n  function times(uint a, uint b) returns (uint) {\n    uint c = a * b;\n    assert(a == 0 || c / a == b);\n    return c;\n  }\n\n  function minus(uint a, uint b) returns (uint) {\n    assert(b <= a);\n    return a - b;\n  }\n\n  function plus(uint a, uint b) returns (uint) {\n    uint c = a + b;\n    assert(c>=a);\n    return c;\n  }\n\n}",
  "sourcePath": "/Users/kevinjohnson/Documents/GitHub/plaza-crowdsale/contracts/SafeMathLib.sol",
  "compiler": {
    "name": "solc",
    "version": "0.4.19+commit.c4cbbb05.Emscripten.clang"
  },
  "schemaVersion": "2.0.0",
  "updatedAt": "2018-03-11T13:08:58.477Z"
}