{
  "contractName": "TimeVault",
  "abi": [
    {
      "constant": true,
      "inputs": [],
      "name": "isTimeVault",
      "outputs": [
        {
          "name": "",
          "type": "bool"
        }
      ],
      "payable": false,
      "stateMutability": "view",
      "type": "function"
    },
    {
      "constant": true,
      "inputs": [],
      "name": "unlockedAt",
      "outputs": [
        {
          "name": "",
          "type": "uint256"
        }
      ],
      "payable": false,
      "stateMutability": "view",
      "type": "function"
    },
    {
      "constant": true,
      "inputs": [],
      "name": "teamMultisig",
      "outputs": [
        {
          "name": "",
          "type": "address"
        }
      ],
      "payable": false,
      "stateMutability": "view",
      "type": "function"
    },
    {
      "constant": true,
      "inputs": [],
      "name": "token",
      "outputs": [
        {
          "name": "",
          "type": "address"
        }
      ],
      "payable": false,
      "stateMutability": "view",
      "type": "function"
    },
    {
      "inputs": [
        {
          "name": "_teamMultisig",
          "type": "address"
        },
        {
          "name": "_token",
          "type": "address"
        },
        {
          "name": "_unlockedAt",
          "type": "uint256"
        }
      ],
      "payable": false,
      "stateMutability": "nonpayable",
      "type": "constructor"
    },
    {
      "payable": false,
      "stateMutability": "nonpayable",
      "type": "fallback"
    },
    {
      "anonymous": false,
      "inputs": [],
      "name": "Unlocked",
      "type": "event"
    },
    {
      "constant": true,
      "inputs": [],
      "name": "getTokenBalance",
      "outputs": [
        {
          "name": "",
          "type": "uint256"
        }
      ],
      "payable": false,
      "stateMutability": "view",
      "type": "function"
    },
    {
      "constant": false,
      "inputs": [],
      "name": "unlock",
      "outputs": [],
      "payable": false,
      "stateMutability": "nonpayable",
      "type": "function"
    }
  ],
  "bytecode": "0x606060405260016000806101000a81548160ff021916908315150217905550341561002957600080fd5b6040516060806106028339810160405280805190602001909190805190602001909190805190602001909190505082600160006101000a81548173ffffffffffffffffffffffffffffffffffffffff021916908373ffffffffffffffffffffffffffffffffffffffff16021790555081600060016101000a81548173ffffffffffffffffffffffffffffffffffffffff021916908373ffffffffffffffffffffffffffffffffffffffff160217905550806002819055506000600160009054906101000a900473ffffffffffffffffffffffffffffffffffffffff1673ffffffffffffffffffffffffffffffffffffffff1614151561012457fe5b60008060019054906101000a900473ffffffffffffffffffffffffffffffffffffffff1673ffffffffffffffffffffffffffffffffffffffff1614151561016757fe5b505050610489806101796000396000f300606060405260043610610078576000357c0100000000000000000000000000000000000000000000000000000000900463ffffffff16806382b2e2571461008857806389c1108d146100b15780638cb1e9c1146100de578063a69df4b514610107578063dbc0c0851461011c578063fc0c546a14610171575b341561008357600080fd5b600080fd5b341561009357600080fd5b61009b6101c6565b6040518082815260200191505060405180910390f35b34156100bc57600080fd5b6100c46102ac565b604051808215151515815260200191505060405180910390f35b34156100e957600080fd5b6100f16102be565b6040518082815260200191505060405180910390f35b341561011257600080fd5b61011a6102c4565b005b341561012757600080fd5b61012f610411565b604051808273ffffffffffffffffffffffffffffffffffffffff1673ffffffffffffffffffffffffffffffffffffffff16815260200191505060405180910390f35b341561017c57600080fd5b610184610437565b604051808273ffffffffffffffffffffffffffffffffffffffff1673ffffffffffffffffffffffffffffffffffffffff16815260200191505060405180910390f35b60008060019054906101000a900473ffffffffffffffffffffffffffffffffffffffff1673ffffffffffffffffffffffffffffffffffffffff166370a08231306000604051602001526040518263ffffffff167c0100000000000000000000000000000000000000000000000000000000028152600401808273ffffffffffffffffffffffffffffffffffffffff1673ffffffffffffffffffffffffffffffffffffffff168152602001915050602060405180830381600087803b151561028c57600080fd5b6102c65a03f1151561029d57600080fd5b50505060405180519050905090565b6000809054906101000a900460ff1681565b60025481565b600254421015156102d157fe5b600060019054906101000a900473ffffffffffffffffffffffffffffffffffffffff1673ffffffffffffffffffffffffffffffffffffffff1663a9059cbb600160009054906101000a900473ffffffffffffffffffffffffffffffffffffffff1661033a6101c6565b6000604051602001526040518363ffffffff167c0100000000000000000000000000000000000000000000000000000000028152600401808373ffffffffffffffffffffffffffffffffffffffff1673ffffffffffffffffffffffffffffffffffffffff16815260200182815260200192505050602060405180830381600087803b15156103c757600080fd5b6102c65a03f115156103d857600080fd5b50505060405180519050507f19aad37188a1d3921e29eb3c66acf43d81975e107cb650d58cca878627955fd660405160405180910390a1565b600160009054906101000a900473ffffffffffffffffffffffffffffffffffffffff1681565b600060019054906101000a900473ffffffffffffffffffffffffffffffffffffffff16815600a165627a7a723058205b0bdcc193bdd5cc3d20680373da8ed8faf5a3fdd93580849605f3e1cb1e48da0029",
  "source": "/**\n * This smart contract code is Copyright 2017 TokenMarket Ltd. For more information see https://tokenmarket.net\n *\n * Licensed under the Apache License, version 2.0: https://github.com/TokenMarketNet/ico/blob/master/LICENSE.txt\n */\n\npragma solidity ^0.4.19;\n\nimport \"./StandardTokenExt.sol\";\n\n/**\n *\n * Time-locked token vault of allocated founder tokens.\n *\n * First used by Lunyr https://github.com/Lunyr/crowdsale-contracts\n *\n *\n * See TokenVault for multi user implementation.\n */\ncontract TimeVault {\n\n  /** Interface flag to determine if address is for a real contract or not */\n  bool public isTimeVault = true;\n\n  /** Token we are holding */\n  StandardTokenExt public token;\n\n  /** Address that can claim tokens */\n  address public teamMultisig;\n\n  /** UNIX timestamp when tokens can be claimed. */\n  uint256 public unlockedAt;\n\n  event Unlocked();\n\n  function TimeVault(address _teamMultisig, StandardTokenExt _token, uint _unlockedAt) {\n\n    teamMultisig = _teamMultisig;\n    token = _token;\n    unlockedAt = _unlockedAt;\n\n    // Sanity check\n    assert(teamMultisig == 0x0);\n    assert(address(token) == 0x0);\n  }\n\n  function getTokenBalance() public constant returns (uint) {\n    return token.balanceOf(address(this));\n  }\n\n  function unlock() public {\n    // Wait your turn!\n    assert(now < unlockedAt);\n\n    // StandardToken will throw in the case of transaction fails\n    token.transfer(teamMultisig, getTokenBalance());\n\n    Unlocked();\n  }\n\n  // disallow ETH payment for this vault\n  function () { throw; }\n\n}",
  "sourcePath": "/Users/kevinjohnson/Documents/GitHub/plaza-crowdsale/contracts/TimeVault.sol",
  "compiler": {
    "name": "solc",
    "version": "0.4.19+commit.c4cbbb05.Emscripten.clang"
  },
  "schemaVersion": "2.0.0",
  "updatedAt": "2018-03-11T17:10:53.096Z"
}